{
  "_format": "hh-sol-artifact-1",
  "contractName": "NFT_Auction",
  "sourceName": "contracts/NFT_Auction.sol",
  "abi": [
    {
      "inputs": [
        {
          "internalType": "string",
          "name": "baseURI",
          "type": "string"
        }
      ],
      "stateMutability": "nonpayable",
      "type": "constructor"
    },
    {
      "anonymous": false,
      "inputs": [
        {
          "indexed": true,
          "internalType": "address",
          "name": "owner",
          "type": "address"
        },
        {
          "indexed": true,
          "internalType": "address",
          "name": "approved",
          "type": "address"
        },
        {
          "indexed": true,
          "internalType": "uint256",
          "name": "tokenId",
          "type": "uint256"
        }
      ],
      "name": "Approval",
      "type": "event"
    },
    {
      "anonymous": false,
      "inputs": [
        {
          "indexed": true,
          "internalType": "address",
          "name": "owner",
          "type": "address"
        },
        {
          "indexed": true,
          "internalType": "address",
          "name": "operator",
          "type": "address"
        },
        {
          "indexed": false,
          "internalType": "bool",
          "name": "approved",
          "type": "bool"
        }
      ],
      "name": "ApprovalForAll",
      "type": "event"
    },
    {
      "anonymous": false,
      "inputs": [
        {
          "indexed": true,
          "internalType": "uint256",
          "name": "auctionID",
          "type": "uint256"
        },
        {
          "indexed": true,
          "internalType": "uint256",
          "name": "tokenID",
          "type": "uint256"
        },
        {
          "indexed": false,
          "internalType": "uint256",
          "name": "startTime",
          "type": "uint256"
        },
        {
          "indexed": false,
          "internalType": "uint256",
          "name": "endTime",
          "type": "uint256"
        }
      ],
      "name": "AuctionCreated",
      "type": "event"
    },
    {
      "anonymous": false,
      "inputs": [
        {
          "indexed": true,
          "internalType": "uint256",
          "name": "auctionID",
          "type": "uint256"
        },
        {
          "indexed": true,
          "internalType": "uint256",
          "name": "tokenID",
          "type": "uint256"
        }
      ],
      "name": "AuctionEnded",
      "type": "event"
    },
    {
      "anonymous": false,
      "inputs": [
        {
          "indexed": true,
          "internalType": "uint256",
          "name": "auctionID",
          "type": "uint256"
        },
        {
          "indexed": false,
          "internalType": "uint256",
          "name": "amount",
          "type": "uint256"
        },
        {
          "indexed": false,
          "internalType": "address",
          "name": "bidder",
          "type": "address"
        }
      ],
      "name": "BidAmountWithdrawn",
      "type": "event"
    },
    {
      "anonymous": false,
      "inputs": [
        {
          "indexed": true,
          "internalType": "uint256",
          "name": "auctionID",
          "type": "uint256"
        },
        {
          "indexed": true,
          "internalType": "uint256",
          "name": "tokenID",
          "type": "uint256"
        },
        {
          "indexed": false,
          "internalType": "uint256",
          "name": "bidAmount",
          "type": "uint256"
        },
        {
          "indexed": false,
          "internalType": "address",
          "name": "bidder",
          "type": "address"
        }
      ],
      "name": "BidSubmitted",
      "type": "event"
    },
    {
      "anonymous": false,
      "inputs": [
        {
          "indexed": true,
          "internalType": "uint256",
          "name": "auctionID",
          "type": "uint256"
        },
        {
          "indexed": true,
          "internalType": "uint256",
          "name": "tokenID",
          "type": "uint256"
        },
        {
          "indexed": false,
          "internalType": "address",
          "name": "highestBidder",
          "type": "address"
        }
      ],
      "name": "BidTokenClaimed",
      "type": "event"
    },
    {
      "anonymous": false,
      "inputs": [],
      "name": "NFTsWereMinted",
      "type": "event"
    },
    {
      "anonymous": false,
      "inputs": [
        {
          "indexed": true,
          "internalType": "address",
          "name": "previousOwner",
          "type": "address"
        },
        {
          "indexed": true,
          "internalType": "address",
          "name": "newOwner",
          "type": "address"
        }
      ],
      "name": "OwnershipTransferred",
      "type": "event"
    },
    {
      "anonymous": false,
      "inputs": [
        {
          "indexed": true,
          "internalType": "address",
          "name": "from",
          "type": "address"
        },
        {
          "indexed": true,
          "internalType": "address",
          "name": "to",
          "type": "address"
        },
        {
          "indexed": true,
          "internalType": "uint256",
          "name": "tokenId",
          "type": "uint256"
        }
      ],
      "name": "Transfer",
      "type": "event"
    },
    {
      "inputs": [
        {
          "internalType": "address",
          "name": "to",
          "type": "address"
        },
        {
          "internalType": "uint256",
          "name": "tokenId",
          "type": "uint256"
        }
      ],
      "name": "approve",
      "outputs": [],
      "stateMutability": "nonpayable",
      "type": "function"
    },
    {
      "inputs": [
        {
          "internalType": "uint256",
          "name": "",
          "type": "uint256"
        }
      ],
      "name": "auctions",
      "outputs": [
        {
          "internalType": "uint256",
          "name": "startTime",
          "type": "uint256"
        },
        {
          "internalType": "uint256",
          "name": "endTime",
          "type": "uint256"
        },
        {
          "internalType": "uint256",
          "name": "highestBid",
          "type": "uint256"
        },
        {
          "internalType": "address",
          "name": "highestBidder",
          "type": "address"
        },
        {
          "internalType": "uint256",
          "name": "tokenID",
          "type": "uint256"
        }
      ],
      "stateMutability": "view",
      "type": "function"
    },
    {
      "inputs": [
        {
          "internalType": "address",
          "name": "owner",
          "type": "address"
        }
      ],
      "name": "balanceOf",
      "outputs": [
        {
          "internalType": "uint256",
          "name": "",
          "type": "uint256"
        }
      ],
      "stateMutability": "view",
      "type": "function"
    },
    {
      "inputs": [],
      "name": "baseTokenURI",
      "outputs": [
        {
          "internalType": "string",
          "name": "",
          "type": "string"
        }
      ],
      "stateMutability": "view",
      "type": "function"
    },
    {
      "inputs": [
        {
          "internalType": "uint256",
          "name": "tokenID",
          "type": "uint256"
        }
      ],
      "name": "endAuction",
      "outputs": [],
      "stateMutability": "payable",
      "type": "function"
    },
    {
      "inputs": [
        {
          "internalType": "uint256",
          "name": "tokenId",
          "type": "uint256"
        }
      ],
      "name": "getApproved",
      "outputs": [
        {
          "internalType": "address",
          "name": "",
          "type": "address"
        }
      ],
      "stateMutability": "view",
      "type": "function"
    },
    {
      "inputs": [
        {
          "internalType": "uint256",
          "name": "tokenID",
          "type": "uint256"
        }
      ],
      "name": "getHighestBid",
      "outputs": [
        {
          "internalType": "uint256",
          "name": "highestBid",
          "type": "uint256"
        }
      ],
      "stateMutability": "view",
      "type": "function"
    },
    {
      "inputs": [
        {
          "internalType": "uint256",
          "name": "tokenID",
          "type": "uint256"
        }
      ],
      "name": "getHighestBidder",
      "outputs": [
        {
          "internalType": "address",
          "name": "highestBidder",
          "type": "address"
        }
      ],
      "stateMutability": "view",
      "type": "function"
    },
    {
      "inputs": [
        {
          "internalType": "address",
          "name": "owner",
          "type": "address"
        },
        {
          "internalType": "address",
          "name": "operator",
          "type": "address"
        }
      ],
      "name": "isApprovedForAll",
      "outputs": [
        {
          "internalType": "bool",
          "name": "",
          "type": "bool"
        }
      ],
      "stateMutability": "view",
      "type": "function"
    },
    {
      "inputs": [
        {
          "internalType": "uint256",
          "name": "_count",
          "type": "uint256"
        }
      ],
      "name": "mintNFTs",
      "outputs": [],
      "stateMutability": "payable",
      "type": "function"
    },
    {
      "inputs": [],
      "name": "mintTenNFTs",
      "outputs": [],
      "stateMutability": "nonpayable",
      "type": "function"
    },
    {
      "inputs": [],
      "name": "name",
      "outputs": [
        {
          "internalType": "string",
          "name": "",
          "type": "string"
        }
      ],
      "stateMutability": "view",
      "type": "function"
    },
    {
      "inputs": [],
      "name": "owner",
      "outputs": [
        {
          "internalType": "address",
          "name": "",
          "type": "address"
        }
      ],
      "stateMutability": "view",
      "type": "function"
    },
    {
      "inputs": [
        {
          "internalType": "uint256",
          "name": "tokenId",
          "type": "uint256"
        }
      ],
      "name": "ownerOf",
      "outputs": [
        {
          "internalType": "address",
          "name": "",
          "type": "address"
        }
      ],
      "stateMutability": "view",
      "type": "function"
    },
    {
      "inputs": [],
      "name": "renounceOwnership",
      "outputs": [],
      "stateMutability": "nonpayable",
      "type": "function"
    },
    {
      "inputs": [
        {
          "internalType": "address",
          "name": "from",
          "type": "address"
        },
        {
          "internalType": "address",
          "name": "to",
          "type": "address"
        },
        {
          "internalType": "uint256",
          "name": "tokenId",
          "type": "uint256"
        }
      ],
      "name": "safeTransferFrom",
      "outputs": [],
      "stateMutability": "nonpayable",
      "type": "function"
    },
    {
      "inputs": [
        {
          "internalType": "address",
          "name": "from",
          "type": "address"
        },
        {
          "internalType": "address",
          "name": "to",
          "type": "address"
        },
        {
          "internalType": "uint256",
          "name": "tokenId",
          "type": "uint256"
        },
        {
          "internalType": "bytes",
          "name": "_data",
          "type": "bytes"
        }
      ],
      "name": "safeTransferFrom",
      "outputs": [],
      "stateMutability": "nonpayable",
      "type": "function"
    },
    {
      "inputs": [
        {
          "internalType": "address",
          "name": "operator",
          "type": "address"
        },
        {
          "internalType": "bool",
          "name": "approved",
          "type": "bool"
        }
      ],
      "name": "setApprovalForAll",
      "outputs": [],
      "stateMutability": "nonpayable",
      "type": "function"
    },
    {
      "inputs": [
        {
          "internalType": "string",
          "name": "_baseTokenURI",
          "type": "string"
        }
      ],
      "name": "setBaseURI",
      "outputs": [],
      "stateMutability": "nonpayable",
      "type": "function"
    },
    {
      "inputs": [
        {
          "internalType": "uint256",
          "name": "tokenID",
          "type": "uint256"
        }
      ],
      "name": "startAuction",
      "outputs": [
        {
          "internalType": "uint256",
          "name": "",
          "type": "uint256"
        }
      ],
      "stateMutability": "nonpayable",
      "type": "function"
    },
    {
      "inputs": [
        {
          "internalType": "uint256",
          "name": "tokenID",
          "type": "uint256"
        }
      ],
      "name": "submitBid",
      "outputs": [],
      "stateMutability": "payable",
      "type": "function"
    },
    {
      "inputs": [
        {
          "internalType": "bytes4",
          "name": "interfaceId",
          "type": "bytes4"
        }
      ],
      "name": "supportsInterface",
      "outputs": [
        {
          "internalType": "bool",
          "name": "",
          "type": "bool"
        }
      ],
      "stateMutability": "view",
      "type": "function"
    },
    {
      "inputs": [],
      "name": "symbol",
      "outputs": [
        {
          "internalType": "string",
          "name": "",
          "type": "string"
        }
      ],
      "stateMutability": "view",
      "type": "function"
    },
    {
      "inputs": [
        {
          "internalType": "uint256",
          "name": "index",
          "type": "uint256"
        }
      ],
      "name": "tokenByIndex",
      "outputs": [
        {
          "internalType": "uint256",
          "name": "",
          "type": "uint256"
        }
      ],
      "stateMutability": "view",
      "type": "function"
    },
    {
      "inputs": [
        {
          "internalType": "address",
          "name": "owner",
          "type": "address"
        },
        {
          "internalType": "uint256",
          "name": "index",
          "type": "uint256"
        }
      ],
      "name": "tokenOfOwnerByIndex",
      "outputs": [
        {
          "internalType": "uint256",
          "name": "",
          "type": "uint256"
        }
      ],
      "stateMutability": "view",
      "type": "function"
    },
    {
      "inputs": [
        {
          "internalType": "uint256",
          "name": "tokenId",
          "type": "uint256"
        }
      ],
      "name": "tokenURI",
      "outputs": [
        {
          "internalType": "string",
          "name": "",
          "type": "string"
        }
      ],
      "stateMutability": "view",
      "type": "function"
    },
    {
      "inputs": [
        {
          "internalType": "address",
          "name": "_owner",
          "type": "address"
        }
      ],
      "name": "tokensOfOwner",
      "outputs": [
        {
          "internalType": "uint256[]",
          "name": "",
          "type": "uint256[]"
        }
      ],
      "stateMutability": "view",
      "type": "function"
    },
    {
      "inputs": [],
      "name": "totalSupply",
      "outputs": [
        {
          "internalType": "uint256",
          "name": "",
          "type": "uint256"
        }
      ],
      "stateMutability": "view",
      "type": "function"
    },
    {
      "inputs": [
        {
          "internalType": "address",
          "name": "from",
          "type": "address"
        },
        {
          "internalType": "address",
          "name": "to",
          "type": "address"
        },
        {
          "internalType": "uint256",
          "name": "tokenId",
          "type": "uint256"
        }
      ],
      "name": "transferFrom",
      "outputs": [],
      "stateMutability": "nonpayable",
      "type": "function"
    },
    {
      "inputs": [
        {
          "internalType": "address",
          "name": "newOwner",
          "type": "address"
        }
      ],
      "name": "transferOwnership",
      "outputs": [],
      "stateMutability": "nonpayable",
      "type": "function"
    },
    {
      "inputs": [],
      "name": "withdraw",
      "outputs": [],
      "stateMutability": "payable",
      "type": "function"
    },
    {
      "inputs": [
        {
          "internalType": "uint256",
          "name": "tokenID",
          "type": "uint256"
        }
      ],
      "name": "withdrawLastBid",
      "outputs": [],
      "stateMutability": "nonpayable",
      "type": "function"
    },
    {
      "inputs": [
        {
          "internalType": "uint256",
          "name": "tokenID",
          "type": "uint256"
        }
      ],
      "name": "withdrawNFT",
      "outputs": [],
      "stateMutability": "nonpayable",
      "type": "function"
    }
  ],
  "bytecode": "0x60806040526000600e60006101000a81548160ff0219169083151502179055503480156200002c57600080fd5b50604051620053c4380380620053c48339818101604052810190620000529190620003ef565b6040518060400160405280600681526020017f4d794e46547300000000000000000000000000000000000000000000000000008152506040518060400160405280600381526020017f4e465400000000000000000000000000000000000000000000000000000000008152508160009080519060200190620000d6929190620002cd565b508060019080519060200190620000ef929190620002cd565b50505062000112620001066200012a60201b60201c565b6200013260201b60201c565b6200012381620001f860201b60201c565b5062000627565b600033905090565b6000600a60009054906101000a900473ffffffffffffffffffffffffffffffffffffffff16905081600a60006101000a81548173ffffffffffffffffffffffffffffffffffffffff021916908373ffffffffffffffffffffffffffffffffffffffff1602179055508173ffffffffffffffffffffffffffffffffffffffff168173ffffffffffffffffffffffffffffffffffffffff167f8be0079c531659141344cd1fd0a4f28419497f9722a3daafe3b4186f6b6457e060405160405180910390a35050565b620002086200012a60201b60201c565b73ffffffffffffffffffffffffffffffffffffffff166200022e620002a360201b60201c565b73ffffffffffffffffffffffffffffffffffffffff161462000287576040517f08c379a00000000000000000000000000000000000000000000000000000000081526004016200027e906200045b565b60405180910390fd5b80601190805190602001906200029f929190620002cd565b5050565b6000600a60009054906101000a900473ffffffffffffffffffffffffffffffffffffffff16905090565b828054620002db9062000523565b90600052602060002090601f016020900481019282620002ff57600085556200034b565b82601f106200031a57805160ff19168380011785556200034b565b828001600101855582156200034b579182015b828111156200034a5782518255916020019190600101906200032d565b5b5090506200035a91906200035e565b5090565b5b80821115620003795760008160009055506001016200035f565b5090565b6000620003946200038e84620004a6565b6200047d565b905082815260208101848484011115620003ad57600080fd5b620003ba848285620004ed565b509392505050565b600082601f830112620003d457600080fd5b8151620003e68482602086016200037d565b91505092915050565b6000602082840312156200040257600080fd5b600082015167ffffffffffffffff8111156200041d57600080fd5b6200042b84828501620003c2565b91505092915050565b600062000443602083620004dc565b91506200045082620005fe565b602082019050919050565b60006020820190508181036000830152620004768162000434565b9050919050565b6000620004896200049c565b905062000497828262000559565b919050565b6000604051905090565b600067ffffffffffffffff821115620004c457620004c3620005be565b5b620004cf82620005ed565b9050602081019050919050565b600082825260208201905092915050565b60005b838110156200050d578082015181840152602081019050620004f0565b838111156200051d576000848401525b50505050565b600060028204905060018216806200053c57607f821691505b602082108114156200055357620005526200058f565b5b50919050565b6200056482620005ed565b810181811067ffffffffffffffff82111715620005865762000585620005be565b5b80604052505050565b7f4e487b7100000000000000000000000000000000000000000000000000000000600052602260045260246000fd5b7f4e487b7100000000000000000000000000000000000000000000000000000000600052604160045260246000fd5b6000601f19601f8301169050919050565b7f4f776e61626c653a2063616c6c6572206973206e6f7420746865206f776e6572600082015250565b614d8d80620006376000396000f3fe6080604052600436106101ee5760003560e01c80636352211e1161010d57806395d89b41116100a0578063c750cb791161006f578063c750cb79146106d9578063c87b56dd14610716578063d547cfb714610753578063e985e9c51461077e578063f2fde38b146107bb576101ee565b806395d89b4114610640578063a22cb4651461066b578063b88d4fde14610694578063b9a2de3a146106bd576101ee565b80638462151c116100dc5780638462151c146105845780638da5cb5b146105c15780638f288644146105ec5780638fc60b8e14610629576101ee565b80636352211e146104d757806370a0823114610514578063715018a61461055157806374bdda1514610568576101ee565b806323b872dd1161018557806342842e0e1161015457806342842e0e146104075780634f6ccce71461043057806355f804b31461046d578063571a26a014610496576101ee565b806323b872dd1461037b5780632f745c59146103a45780633b4b1381146103e15780633ccfd60b146103fd576101ee565b8063081812fc116101c1578063081812fc146102c1578063095ea7b3146102fe57806318160ddd146103275780631de18feb14610352576101ee565b806301ffc9a7146101f3578063023245d714610230578063065de74c1461025957806306fdde0314610296575b600080fd5b3480156101ff57600080fd5b5061021a60048036038101906102159190613784565b6107e4565b6040516102279190613e08565b60405180910390f35b34801561023c57600080fd5b5061025760048036038101906102529190613817565b61085e565b005b34801561026557600080fd5b50610280600480360381019061027b9190613817565b61095c565b60405161028d9190614185565b60405180910390f35b3480156102a257600080fd5b506102ab610b38565b6040516102b89190613e23565b60405180910390f35b3480156102cd57600080fd5b506102e860048036038101906102e39190613817565b610bca565b6040516102f59190613d7f565b60405180910390f35b34801561030a57600080fd5b5061032560048036038101906103209190613748565b610c4f565b005b34801561033357600080fd5b5061033c610d67565b6040516103499190614185565b60405180910390f35b34801561035e57600080fd5b5061037960048036038101906103749190613817565b610d74565b005b34801561038757600080fd5b506103a2600480360381019061039d9190613642565b610f32565b005b3480156103b057600080fd5b506103cb60048036038101906103c69190613748565b610f92565b6040516103d89190614185565b60405180910390f35b6103fb60048036038101906103f69190613817565b611037565b005b610405611061565b005b34801561041357600080fd5b5061042e60048036038101906104299190613642565b6111d5565b005b34801561043c57600080fd5b5061045760048036038101906104529190613817565b6111f5565b6040516104649190614185565b60405180910390f35b34801561047957600080fd5b50610494600480360381019061048f91906137d6565b61128c565b005b3480156104a257600080fd5b506104bd60048036038101906104b89190613817565b611322565b6040516104ce9594939291906141f2565b60405180910390f35b3480156104e357600080fd5b506104fe60048036038101906104f99190613817565b611378565b60405161050b9190613d7f565b60405180910390f35b34801561052057600080fd5b5061053b600480360381019061053691906135dd565b61142a565b6040516105489190614185565b60405180910390f35b34801561055d57600080fd5b506105666114e2565b005b610582600480360381019061057d9190613817565b61156a565b005b34801561059057600080fd5b506105ab60048036038101906105a691906135dd565b61183b565b6040516105b89190613de6565b60405180910390f35b3480156105cd57600080fd5b506105d6611935565b6040516105e39190613d7f565b60405180910390f35b3480156105f857600080fd5b50610613600480360381019061060e9190613817565b61195f565b6040516106209190614185565b60405180910390f35b34801561063557600080fd5b5061063e611997565b005b34801561064c57600080fd5b50610655611a84565b6040516106629190613e23565b60405180910390f35b34801561067757600080fd5b50610692600480360381019061068d919061370c565b611b16565b005b3480156106a057600080fd5b506106bb60048036038101906106b69190613691565b611b2c565b005b6106d760048036038101906106d29190613817565b611b8e565b005b3480156106e557600080fd5b5061070060048036038101906106fb9190613817565b611d70565b60405161070d9190613d7f565b60405180910390f35b34801561072257600080fd5b5061073d60048036038101906107389190613817565b611dc8565b60405161074a9190613e23565b60405180910390f35b34801561075f57600080fd5b50610768611e6f565b6040516107759190613e23565b60405180910390f35b34801561078a57600080fd5b506107a560048036038101906107a09190613606565b611efd565b6040516107b29190613e08565b60405180910390f35b3480156107c757600080fd5b506107e260048036038101906107dd91906135dd565b611f91565b005b60007f780e9d63000000000000000000000000000000000000000000000000000000007bffffffffffffffffffffffffffffffffffffffffffffffffffffffff1916827bffffffffffffffffffffffffffffffffffffffffffffffffffffffff19161480610857575061085682612089565b5b9050919050565b6000600d60008381526020019081526020016000205490503373ffffffffffffffffffffffffffffffffffffffff16600b600083815260200190815260200160002060030160009054906101000a900473ffffffffffffffffffffffffffffffffffffffff1673ffffffffffffffffffffffffffffffffffffffff161415610958576109086108eb611935565b33600b60008581526020019081526020016000206004015461216b565b600b600082815260200190815260200160002060040154817f02c960149e3d3b6374f54beee5d16351f44f06664fde68ab0e57a9e5b49c6df33360405161094f9190613d7f565b60405180910390a35b5050565b60006109666123d2565b73ffffffffffffffffffffffffffffffffffffffff16610984611935565b73ffffffffffffffffffffffffffffffffffffffff16146109da576040517f08c379a00000000000000000000000000000000000000000000000000000000081526004016109d190614065565b60405180910390fd5b6000600d600084815260200190815260200160002054905060011515600e60009054906101000a900460ff16151514610a48576040517f08c379a0000000000000000000000000000000000000000000000000000000008152600401610a3f906140c5565b60405180910390fd5b42600b60008381526020019081526020016000206000018190555061025842610a719190614353565b600b60008381526020019081526020016000206001018190555082600b60008381526020019081526020016000206004018190555080600d60008581526020019081526020016000208190555082817fa9c8dfcda5664a5a124c713e386da27de87432d5b668e79458501eb296389ba7600b600085815260200190815260200160002060000154600b600086815260200190815260200160002060010154604051610b1d9291906141c9565b60405180910390a3610b2f600f6123da565b80915050919050565b606060008054610b47906144c4565b80601f0160208091040260200160405190810160405280929190818152602001828054610b73906144c4565b8015610bc05780601f10610b9557610100808354040283529160200191610bc0565b820191906000526020600020905b815481529060010190602001808311610ba357829003601f168201915b5050505050905090565b6000610bd5826123f0565b610c14576040517f08c379a0000000000000000000000000000000000000000000000000000000008152600401610c0b90614045565b60405180910390fd5b6004600083815260200190815260200160002060009054906101000a900473ffffffffffffffffffffffffffffffffffffffff169050919050565b6000610c5a82611378565b90508073ffffffffffffffffffffffffffffffffffffffff168373ffffffffffffffffffffffffffffffffffffffff161415610ccb576040517f08c379a0000000000000000000000000000000000000000000000000000000008152600401610cc2906140e5565b60405180910390fd5b8073ffffffffffffffffffffffffffffffffffffffff16610cea6123d2565b73ffffffffffffffffffffffffffffffffffffffff161480610d195750610d1881610d136123d2565b611efd565b5b610d58576040517f08c379a0000000000000000000000000000000000000000000000000000000008152600401610d4f90613fa5565b60405180910390fd5b610d62838361245c565b505050565b6000600880549050905090565b6000600d60008381526020019081526020016000205490503373ffffffffffffffffffffffffffffffffffffffff16600b600083815260200190815260200160002060030160009054906101000a900473ffffffffffffffffffffffffffffffffffffffff1673ffffffffffffffffffffffffffffffffffffffff161415610e31576040517f08c379a0000000000000000000000000000000000000000000000000000000008152600401610e2890613e45565b60405180910390fd5b6000600c600083815260200190815260200160002060003373ffffffffffffffffffffffffffffffffffffffff1673ffffffffffffffffffffffffffffffffffffffff1681526020019081526020016000205490506000600c600084815260200190815260200160002060003373ffffffffffffffffffffffffffffffffffffffff1673ffffffffffffffffffffffffffffffffffffffff168152602001908152602001600020819055506000811115610f2d573373ffffffffffffffffffffffffffffffffffffffff166108fc829081150290604051600060405180830381858888f19350505050158015610f2b573d6000803e3d6000fd5b505b505050565b610f43610f3d6123d2565b82612515565b610f82576040517f08c379a0000000000000000000000000000000000000000000000000000000008152600401610f7990614145565b60405180910390fd5b610f8d83838361216b565b505050565b6000610f9d8361142a565b8210610fde576040517f08c379a0000000000000000000000000000000000000000000000000000000008152600401610fd590613e65565b60405180910390fd5b600660008473ffffffffffffffffffffffffffffffffffffffff1673ffffffffffffffffffffffffffffffffffffffff168152602001908152602001600020600083815260200190815260200160002054905092915050565b60005b8181101561105d5761104a6125f3565b808061105590614527565b91505061103a565b5050565b6110696123d2565b73ffffffffffffffffffffffffffffffffffffffff16611087611935565b73ffffffffffffffffffffffffffffffffffffffff16146110dd576040517f08c379a00000000000000000000000000000000000000000000000000000000081526004016110d490614065565b60405180910390fd5b600047905060008111611125576040517f08c379a000000000000000000000000000000000000000000000000000000000815260040161111c90614025565b60405180910390fd5b60003373ffffffffffffffffffffffffffffffffffffffff168260405161114b90613d6a565b60006040518083038185875af1925050503d8060008114611188576040519150601f19603f3d011682016040523d82523d6000602084013e61118d565b606091505b50509050806111d1576040517f08c379a00000000000000000000000000000000000000000000000000000000081526004016111c890614125565b60405180910390fd5b5050565b6111f083838360405180602001604052806000815250611b2c565b505050565b60006111ff610d67565b8210611240576040517f08c379a000000000000000000000000000000000000000000000000000000000815260040161123790614165565b60405180910390fd5b6008828154811061127a577f4e487b7100000000000000000000000000000000000000000000000000000000600052603260045260246000fd5b90600052602060002001549050919050565b6112946123d2565b73ffffffffffffffffffffffffffffffffffffffff166112b2611935565b73ffffffffffffffffffffffffffffffffffffffff1614611308576040517f08c379a00000000000000000000000000000000000000000000000000000000081526004016112ff90614065565b60405180910390fd5b806011908051906020019061131e929190613401565b5050565b600b6020528060005260406000206000915090508060000154908060010154908060020154908060030160009054906101000a900473ffffffffffffffffffffffffffffffffffffffff16908060040154905085565b6000806002600084815260200190815260200160002060009054906101000a900473ffffffffffffffffffffffffffffffffffffffff169050600073ffffffffffffffffffffffffffffffffffffffff168173ffffffffffffffffffffffffffffffffffffffff161415611421576040517f08c379a000000000000000000000000000000000000000000000000000000000815260040161141890613fe5565b60405180910390fd5b80915050919050565b60008073ffffffffffffffffffffffffffffffffffffffff168273ffffffffffffffffffffffffffffffffffffffff16141561149b576040517f08c379a000000000000000000000000000000000000000000000000000000000815260040161149290613fc5565b60405180910390fd5b600360008373ffffffffffffffffffffffffffffffffffffffff1673ffffffffffffffffffffffffffffffffffffffff168152602001908152602001600020549050919050565b6114ea6123d2565b73ffffffffffffffffffffffffffffffffffffffff16611508611935565b73ffffffffffffffffffffffffffffffffffffffff161461155e576040517f08c379a000000000000000000000000000000000000000000000000000000000815260040161155590614065565b60405180910390fd5b6115686000612618565b565b6000600d600083815260200190815260200160002054905081600b600083815260200190815260200160002060040154146115da576040517f08c379a00000000000000000000000000000000000000000000000000000000081526004016115d190613f65565b60405180910390fd5b42600b60008381526020019081526020016000206001015411611632576040517f08c379a000000000000000000000000000000000000000000000000000000000815260040161162990614085565b60405180910390fd5b60003490506000600c600084815260200190815260200160002060003373ffffffffffffffffffffffffffffffffffffffff1673ffffffffffffffffffffffffffffffffffffffff16815260200190815260200160002054905081600b600086815260200190815260200160002060020154106116e4576040517f08c379a00000000000000000000000000000000000000000000000000000000081526004016116db90613f85565b60405180910390fd5b6000811115611735573373ffffffffffffffffffffffffffffffffffffffff166108fc829081150290604051600060405180830381858888f19350505050158015611733573d6000803e3d6000fd5b505b81600c600085815260200190815260200160002060003373ffffffffffffffffffffffffffffffffffffffff1673ffffffffffffffffffffffffffffffffffffffff1681526020019081526020016000208190555081600b60008581526020019081526020016000206002018190555033600b600085815260200190815260200160002060030160006101000a81548173ffffffffffffffffffffffffffffffffffffffff021916908373ffffffffffffffffffffffffffffffffffffffff16021790555083837f422ea9e39389435ac3a5f12b4300add2e852594854890e86d04e85f018b94b10843360405161182d9291906141a0565b60405180910390a350505050565b606060006118488361142a565b905060008167ffffffffffffffff81111561188c577f4e487b7100000000000000000000000000000000000000000000000000000000600052604160045260246000fd5b6040519080825280602002602001820160405280156118ba5781602001602082028036833780820191505090505b50905060005b8281101561192a576118d28582610f92565b82828151811061190b577f4e487b7100000000000000000000000000000000000000000000000000000000600052603260045260246000fd5b602002602001018181525050808061192290614527565b9150506118c0565b508092505050919050565b6000600a60009054906101000a900473ffffffffffffffffffffffffffffffffffffffff16905090565b600080600d6000848152602001908152602001600020549050600b600082815260200190815260200160002060020154915050919050565b61199f6123d2565b73ffffffffffffffffffffffffffffffffffffffff166119bd611935565b73ffffffffffffffffffffffffffffffffffffffff1614611a13576040517f08c379a0000000000000000000000000000000000000000000000000000000008152600401611a0a90614065565b60405180910390fd5b60005b600a811015611a3a57611a276125f3565b8080611a3290614527565b915050611a16565b506001600e60006101000a81548160ff0219169083151502179055507f7cbe180dcdb6fe835b551af6e2180f15ed891157954b138561523b3bf683f67d60405160405180910390a1565b606060018054611a93906144c4565b80601f0160208091040260200160405190810160405280929190818152602001828054611abf906144c4565b8015611b0c5780601f10611ae157610100808354040283529160200191611b0c565b820191906000526020600020905b815481529060010190602001808311611aef57829003601f168201915b5050505050905090565b611b28611b216123d2565b83836126de565b5050565b611b3d611b376123d2565b83612515565b611b7c576040517f08c379a0000000000000000000000000000000000000000000000000000000008152600401611b7390614145565b60405180910390fd5b611b888484848461284b565b50505050565b611b966123d2565b73ffffffffffffffffffffffffffffffffffffffff16611bb4611935565b73ffffffffffffffffffffffffffffffffffffffff1614611c0a576040517f08c379a0000000000000000000000000000000000000000000000000000000008152600401611c0190614065565b60405180910390fd5b6000600d60008381526020019081526020016000205490506000600b60008381526020019081526020016000206002015411611c7b576040517f08c379a0000000000000000000000000000000000000000000000000000000008152600401611c7290614105565b60405180910390fd5b60003373ffffffffffffffffffffffffffffffffffffffff16600b600084815260200190815260200160002060020154604051611cb790613d6a565b60006040518083038185875af1925050503d8060008114611cf4576040519150601f19603f3d011682016040523d82523d6000602084013e611cf9565b606091505b5050905080611d3d576040517f08c379a0000000000000000000000000000000000000000000000000000000008152600401611d3490614125565b60405180910390fd5b82827fe536ac546f86787f3ea4069f79235c6b5a681e87d051300a3ed19a6ebb0db71c60405160405180910390a3505050565b600080600d6000848152602001908152602001600020549050600b600082815260200190815260200160002060030160009054906101000a900473ffffffffffffffffffffffffffffffffffffffff16915050919050565b6060611dd3826123f0565b611e12576040517f08c379a0000000000000000000000000000000000000000000000000000000008152600401611e09906140a5565b60405180910390fd5b6000611e1c6128a7565b90506000815111611e3c5760405180602001604052806000815250611e67565b80611e4684612939565b604051602001611e57929190613d46565b6040516020818303038152906040525b915050919050565b60118054611e7c906144c4565b80601f0160208091040260200160405190810160405280929190818152602001828054611ea8906144c4565b8015611ef55780601f10611eca57610100808354040283529160200191611ef5565b820191906000526020600020905b815481529060010190602001808311611ed857829003601f168201915b505050505081565b6000600560008473ffffffffffffffffffffffffffffffffffffffff1673ffffffffffffffffffffffffffffffffffffffff16815260200190815260200160002060008373ffffffffffffffffffffffffffffffffffffffff1673ffffffffffffffffffffffffffffffffffffffff16815260200190815260200160002060009054906101000a900460ff16905092915050565b611f996123d2565b73ffffffffffffffffffffffffffffffffffffffff16611fb7611935565b73ffffffffffffffffffffffffffffffffffffffff161461200d576040517f08c379a000000000000000000000000000000000000000000000000000000000815260040161200490614065565b60405180910390fd5b600073ffffffffffffffffffffffffffffffffffffffff168173ffffffffffffffffffffffffffffffffffffffff16141561207d576040517f08c379a000000000000000000000000000000000000000000000000000000000815260040161207490613ea5565b60405180910390fd5b61208681612618565b50565b60007f80ac58cd000000000000000000000000000000000000000000000000000000007bffffffffffffffffffffffffffffffffffffffffffffffffffffffff1916827bffffffffffffffffffffffffffffffffffffffffffffffffffffffff1916148061215457507f5b5e139f000000000000000000000000000000000000000000000000000000007bffffffffffffffffffffffffffffffffffffffffffffffffffffffff1916827bffffffffffffffffffffffffffffffffffffffffffffffffffffffff1916145b80612164575061216382612ae6565b5b9050919050565b8273ffffffffffffffffffffffffffffffffffffffff1661218b82611378565b73ffffffffffffffffffffffffffffffffffffffff16146121e1576040517f08c379a00000000000000000000000000000000000000000000000000000000081526004016121d890613ec5565b60405180910390fd5b600073ffffffffffffffffffffffffffffffffffffffff168273ffffffffffffffffffffffffffffffffffffffff161415612251576040517f08c379a000000000000000000000000000000000000000000000000000000000815260040161224890613f05565b60405180910390fd5b61225c838383612b50565b61226760008261245c565b6001600360008573ffffffffffffffffffffffffffffffffffffffff1673ffffffffffffffffffffffffffffffffffffffff16815260200190815260200160002060008282546122b791906143da565b925050819055506001600360008473ffffffffffffffffffffffffffffffffffffffff1673ffffffffffffffffffffffffffffffffffffffff168152602001908152602001600020600082825461230e9190614353565b92505081905550816002600083815260200190815260200160002060006101000a81548173ffffffffffffffffffffffffffffffffffffffff021916908373ffffffffffffffffffffffffffffffffffffffff160217905550808273ffffffffffffffffffffffffffffffffffffffff168473ffffffffffffffffffffffffffffffffffffffff167fddf252ad1be2c89b69c2b068fc378daa952ba7f163c4a11628f55a4df523b3ef60405160405180910390a46123cd838383612c64565b505050565b600033905090565b6001816000016000828254019250508190555050565b60008073ffffffffffffffffffffffffffffffffffffffff166002600084815260200190815260200160002060009054906101000a900473ffffffffffffffffffffffffffffffffffffffff1673ffffffffffffffffffffffffffffffffffffffff1614159050919050565b816004600083815260200190815260200160002060006101000a81548173ffffffffffffffffffffffffffffffffffffffff021916908373ffffffffffffffffffffffffffffffffffffffff160217905550808273ffffffffffffffffffffffffffffffffffffffff166124cf83611378565b73ffffffffffffffffffffffffffffffffffffffff167f8c5be1e5ebec7d5bd14f71427d1e84f3dd0314c0f7b2291e5b200ac8c7c3b92560405160405180910390a45050565b6000612520826123f0565b61255f576040517f08c379a000000000000000000000000000000000000000000000000000000000815260040161255690613f45565b60405180910390fd5b600061256a83611378565b90508073ffffffffffffffffffffffffffffffffffffffff168473ffffffffffffffffffffffffffffffffffffffff1614806125d957508373ffffffffffffffffffffffffffffffffffffffff166125c184610bca565b73ffffffffffffffffffffffffffffffffffffffff16145b806125ea57506125e98185611efd565b5b91505092915050565b60006125ff6010612c69565b905061260b3382612c77565b61261560106123da565b50565b6000600a60009054906101000a900473ffffffffffffffffffffffffffffffffffffffff16905081600a60006101000a81548173ffffffffffffffffffffffffffffffffffffffff021916908373ffffffffffffffffffffffffffffffffffffffff1602179055508173ffffffffffffffffffffffffffffffffffffffff168173ffffffffffffffffffffffffffffffffffffffff167f8be0079c531659141344cd1fd0a4f28419497f9722a3daafe3b4186f6b6457e060405160405180910390a35050565b8173ffffffffffffffffffffffffffffffffffffffff168373ffffffffffffffffffffffffffffffffffffffff16141561274d576040517f08c379a000000000000000000000000000000000000000000000000000000000815260040161274490613f25565b60405180910390fd5b80600560008573ffffffffffffffffffffffffffffffffffffffff1673ffffffffffffffffffffffffffffffffffffffff16815260200190815260200160002060008473ffffffffffffffffffffffffffffffffffffffff1673ffffffffffffffffffffffffffffffffffffffff16815260200190815260200160002060006101000a81548160ff0219169083151502179055508173ffffffffffffffffffffffffffffffffffffffff168373ffffffffffffffffffffffffffffffffffffffff167f17307eab39ab6107e8899845ad3d59bd9653f200f220920489ca2b5937696c318360405161283e9190613e08565b60405180910390a3505050565b61285684848461216b565b61286284848484612c95565b6128a1576040517f08c379a000000000000000000000000000000000000000000000000000000000815260040161289890613e85565b60405180910390fd5b50505050565b6060601180546128b6906144c4565b80601f01602080910402602001604051908101604052809291908181526020018280546128e2906144c4565b801561292f5780601f106129045761010080835404028352916020019161292f565b820191906000526020600020905b81548152906001019060200180831161291257829003601f168201915b5050505050905090565b60606000821415612981576040518060400160405280600181526020017f30000000000000000000000000000000000000000000000000000000000000008152509050612ae1565b600082905060005b600082146129b357808061299c90614527565b915050600a826129ac91906143a9565b9150612989565b60008167ffffffffffffffff8111156129f5577f4e487b7100000000000000000000000000000000000000000000000000000000600052604160045260246000fd5b6040519080825280601f01601f191660200182016040528015612a275781602001600182028036833780820191505090505b5090505b60008514612ada57600182612a4091906143da565b9150600a85612a4f9190614570565b6030612a5b9190614353565b60f81b818381518110612a97577f4e487b7100000000000000000000000000000000000000000000000000000000600052603260045260246000fd5b60200101907effffffffffffffffffffffffffffffffffffffffffffffffffffffffffffff1916908160001a905350600a85612ad391906143a9565b9450612a2b565b8093505050505b919050565b60007f01ffc9a7000000000000000000000000000000000000000000000000000000007bffffffffffffffffffffffffffffffffffffffffffffffffffffffff1916827bffffffffffffffffffffffffffffffffffffffffffffffffffffffff1916149050919050565b612b5b838383612e2c565b600073ffffffffffffffffffffffffffffffffffffffff168373ffffffffffffffffffffffffffffffffffffffff161415612b9e57612b9981612e31565b612bdd565b8173ffffffffffffffffffffffffffffffffffffffff168373ffffffffffffffffffffffffffffffffffffffff1614612bdc57612bdb8382612e7a565b5b5b600073ffffffffffffffffffffffffffffffffffffffff168273ffffffffffffffffffffffffffffffffffffffff161415612c2057612c1b81612fe7565b612c5f565b8273ffffffffffffffffffffffffffffffffffffffff168273ffffffffffffffffffffffffffffffffffffffff1614612c5e57612c5d828261312a565b5b5b505050565b505050565b600081600001549050919050565b612c918282604051806020016040528060008152506131a9565b5050565b6000612cb68473ffffffffffffffffffffffffffffffffffffffff16613204565b15612e1f578373ffffffffffffffffffffffffffffffffffffffff1663150b7a02612cdf6123d2565b8786866040518563ffffffff1660e01b8152600401612d019493929190613d9a565b602060405180830381600087803b158015612d1b57600080fd5b505af1925050508015612d4c57506040513d601f19601f82011682018060405250810190612d4991906137ad565b60015b612dcf573d8060008114612d7c576040519150601f19603f3d011682016040523d82523d6000602084013e612d81565b606091505b50600081511415612dc7576040517f08c379a0000000000000000000000000000000000000000000000000000000008152600401612dbe90613e85565b60405180910390fd5b805181602001fd5b63150b7a0260e01b7bffffffffffffffffffffffffffffffffffffffffffffffffffffffff1916817bffffffffffffffffffffffffffffffffffffffffffffffffffffffff191614915050612e24565b600190505b949350505050565b505050565b6008805490506009600083815260200190815260200160002081905550600881908060018154018082558091505060019003906000526020600020016000909190919091505550565b60006001612e878461142a565b612e9191906143da565b9050600060076000848152602001908152602001600020549050818114612f76576000600660008673ffffffffffffffffffffffffffffffffffffffff1673ffffffffffffffffffffffffffffffffffffffff168152602001908152602001600020600084815260200190815260200160002054905080600660008773ffffffffffffffffffffffffffffffffffffffff1673ffffffffffffffffffffffffffffffffffffffff168152602001908152602001600020600084815260200190815260200160002081905550816007600083815260200190815260200160002081905550505b6007600084815260200190815260200160002060009055600660008573ffffffffffffffffffffffffffffffffffffffff1673ffffffffffffffffffffffffffffffffffffffff16815260200190815260200160002060008381526020019081526020016000206000905550505050565b60006001600880549050612ffb91906143da565b9050600060096000848152602001908152602001600020549050600060088381548110613051577f4e487b7100000000000000000000000000000000000000000000000000000000600052603260045260246000fd5b906000526020600020015490508060088381548110613099577f4e487b7100000000000000000000000000000000000000000000000000000000600052603260045260246000fd5b90600052602060002001819055508160096000838152602001908152602001600020819055506009600085815260200190815260200160002060009055600880548061310e577f4e487b7100000000000000000000000000000000000000000000000000000000600052603160045260246000fd5b6001900381819060005260206000200160009055905550505050565b60006131358361142a565b905081600660008573ffffffffffffffffffffffffffffffffffffffff1673ffffffffffffffffffffffffffffffffffffffff168152602001908152602001600020600083815260200190815260200160002081905550806007600084815260200190815260200160002081905550505050565b6131b38383613227565b6131c06000848484612c95565b6131ff576040517f08c379a00000000000000000000000000000000000000000000000000000000081526004016131f690613e85565b60405180910390fd5b505050565b6000808273ffffffffffffffffffffffffffffffffffffffff163b119050919050565b600073ffffffffffffffffffffffffffffffffffffffff168273ffffffffffffffffffffffffffffffffffffffff161415613297576040517f08c379a000000000000000000000000000000000000000000000000000000000815260040161328e90614005565b60405180910390fd5b6132a0816123f0565b156132e0576040517f08c379a00000000000000000000000000000000000000000000000000000000081526004016132d790613ee5565b60405180910390fd5b6132ec60008383612b50565b6001600360008473ffffffffffffffffffffffffffffffffffffffff1673ffffffffffffffffffffffffffffffffffffffff168152602001908152602001600020600082825461333c9190614353565b92505081905550816002600083815260200190815260200160002060006101000a81548173ffffffffffffffffffffffffffffffffffffffff021916908373ffffffffffffffffffffffffffffffffffffffff160217905550808273ffffffffffffffffffffffffffffffffffffffff16600073ffffffffffffffffffffffffffffffffffffffff167fddf252ad1be2c89b69c2b068fc378daa952ba7f163c4a11628f55a4df523b3ef60405160405180910390a46133fd60008383612c64565b5050565b82805461340d906144c4565b90600052602060002090601f01602090048101928261342f5760008555613476565b82601f1061344857805160ff1916838001178555613476565b82800160010185558215613476579182015b8281111561347557825182559160200191906001019061345a565b5b5090506134839190613487565b5090565b5b808211156134a0576000816000905550600101613488565b5090565b60006134b76134b28461426a565b614245565b9050828152602081018484840111156134cf57600080fd5b6134da848285614482565b509392505050565b60006134f56134f08461429b565b614245565b90508281526020810184848401111561350d57600080fd5b613518848285614482565b509392505050565b60008135905061352f81614cfb565b92915050565b60008135905061354481614d12565b92915050565b60008135905061355981614d29565b92915050565b60008151905061356e81614d29565b92915050565b600082601f83011261358557600080fd5b81356135958482602086016134a4565b91505092915050565b600082601f8301126135af57600080fd5b81356135bf8482602086016134e2565b91505092915050565b6000813590506135d781614d40565b92915050565b6000602082840312156135ef57600080fd5b60006135fd84828501613520565b91505092915050565b6000806040838503121561361957600080fd5b600061362785828601613520565b925050602061363885828601613520565b9150509250929050565b60008060006060848603121561365757600080fd5b600061366586828701613520565b935050602061367686828701613520565b9250506040613687868287016135c8565b9150509250925092565b600080600080608085870312156136a757600080fd5b60006136b587828801613520565b94505060206136c687828801613520565b93505060406136d7878288016135c8565b925050606085013567ffffffffffffffff8111156136f457600080fd5b61370087828801613574565b91505092959194509250565b6000806040838503121561371f57600080fd5b600061372d85828601613520565b925050602061373e85828601613535565b9150509250929050565b6000806040838503121561375b57600080fd5b600061376985828601613520565b925050602061377a858286016135c8565b9150509250929050565b60006020828403121561379657600080fd5b60006137a48482850161354a565b91505092915050565b6000602082840312156137bf57600080fd5b60006137cd8482850161355f565b91505092915050565b6000602082840312156137e857600080fd5b600082013567ffffffffffffffff81111561380257600080fd5b61380e8482850161359e565b91505092915050565b60006020828403121561382957600080fd5b6000613837848285016135c8565b91505092915050565b600061384c8383613d28565b60208301905092915050565b6138618161440e565b82525050565b6000613872826142dc565b61387c818561430a565b9350613887836142cc565b8060005b838110156138b857815161389f8882613840565b97506138aa836142fd565b92505060018101905061388b565b5085935050505092915050565b6138ce81614420565b82525050565b60006138df826142e7565b6138e9818561431b565b93506138f9818560208601614491565b6139028161465d565b840191505092915050565b6000613918826142f2565b6139228185614337565b9350613932818560208601614491565b61393b8161465d565b840191505092915050565b6000613951826142f2565b61395b8185614348565b935061396b818560208601614491565b80840191505092915050565b6000613984603283614337565b915061398f8261466e565b604082019050919050565b60006139a7602b83614337565b91506139b2826146bd565b604082019050919050565b60006139ca603283614337565b91506139d58261470c565b604082019050919050565b60006139ed602683614337565b91506139f88261475b565b604082019050919050565b6000613a10602583614337565b9150613a1b826147aa565b604082019050919050565b6000613a33601c83614337565b9150613a3e826147f9565b602082019050919050565b6000613a56602483614337565b9150613a6182614822565b604082019050919050565b6000613a79601983614337565b9150613a8482614871565b602082019050919050565b6000613a9c602c83614337565b9150613aa78261489a565b604082019050919050565b6000613abf601083614337565b9150613aca826148e9565b602082019050919050565b6000613ae2603083614337565b9150613aed82614912565b604082019050919050565b6000613b05603883614337565b9150613b1082614961565b604082019050919050565b6000613b28602a83614337565b9150613b33826149b0565b604082019050919050565b6000613b4b602983614337565b9150613b56826149ff565b604082019050919050565b6000613b6e602083614337565b9150613b7982614a4e565b602082019050919050565b6000613b91601983614337565b9150613b9c82614a77565b602082019050919050565b6000613bb4602c83614337565b9150613bbf82614aa0565b604082019050919050565b6000613bd7602083614337565b9150613be282614aef565b602082019050919050565b6000613bfa601f83614337565b9150613c0582614b18565b602082019050919050565b6000613c1d602f83614337565b9150613c2882614b41565b604082019050919050565b6000613c40601b83614337565b9150613c4b82614b90565b602082019050919050565b6000613c63602183614337565b9150613c6e82614bb9565b604082019050919050565b6000613c8660008361432c565b9150613c9182614c08565b600082019050919050565b6000613ca9601783614337565b9150613cb482614c0b565b602082019050919050565b6000613ccc601083614337565b9150613cd782614c34565b602082019050919050565b6000613cef603183614337565b9150613cfa82614c5d565b604082019050919050565b6000613d12602c83614337565b9150613d1d82614cac565b604082019050919050565b613d3181614478565b82525050565b613d4081614478565b82525050565b6000613d528285613946565b9150613d5e8284613946565b91508190509392505050565b6000613d7582613c79565b9150819050919050565b6000602082019050613d946000830184613858565b92915050565b6000608082019050613daf6000830187613858565b613dbc6020830186613858565b613dc96040830185613d37565b8181036060830152613ddb81846138d4565b905095945050505050565b60006020820190508181036000830152613e008184613867565b905092915050565b6000602082019050613e1d60008301846138c5565b92915050565b60006020820190508181036000830152613e3d818461390d565b905092915050565b60006020820190508181036000830152613e5e81613977565b9050919050565b60006020820190508181036000830152613e7e8161399a565b9050919050565b60006020820190508181036000830152613e9e816139bd565b9050919050565b60006020820190508181036000830152613ebe816139e0565b9050919050565b60006020820190508181036000830152613ede81613a03565b9050919050565b60006020820190508181036000830152613efe81613a26565b9050919050565b60006020820190508181036000830152613f1e81613a49565b9050919050565b60006020820190508181036000830152613f3e81613a6c565b9050919050565b60006020820190508181036000830152613f5e81613a8f565b9050919050565b60006020820190508181036000830152613f7e81613ab2565b9050919050565b60006020820190508181036000830152613f9e81613ad5565b9050919050565b60006020820190508181036000830152613fbe81613af8565b9050919050565b60006020820190508181036000830152613fde81613b1b565b9050919050565b60006020820190508181036000830152613ffe81613b3e565b9050919050565b6000602082019050818103600083015261401e81613b61565b9050919050565b6000602082019050818103600083015261403e81613b84565b9050919050565b6000602082019050818103600083015261405e81613ba7565b9050919050565b6000602082019050818103600083015261407e81613bca565b9050919050565b6000602082019050818103600083015261409e81613bed565b9050919050565b600060208201905081810360008301526140be81613c10565b9050919050565b600060208201905081810360008301526140de81613c33565b9050919050565b600060208201905081810360008301526140fe81613c56565b9050919050565b6000602082019050818103600083015261411e81613c9c565b9050919050565b6000602082019050818103600083015261413e81613cbf565b9050919050565b6000602082019050818103600083015261415e81613ce2565b9050919050565b6000602082019050818103600083015261417e81613d05565b9050919050565b600060208201905061419a6000830184613d37565b92915050565b60006040820190506141b56000830185613d37565b6141c26020830184613858565b9392505050565b60006040820190506141de6000830185613d37565b6141eb6020830184613d37565b9392505050565b600060a0820190506142076000830188613d37565b6142146020830187613d37565b6142216040830186613d37565b61422e6060830185613858565b61423b6080830184613d37565b9695505050505050565b600061424f614260565b905061425b82826144f6565b919050565b6000604051905090565b600067ffffffffffffffff8211156142855761428461462e565b5b61428e8261465d565b9050602081019050919050565b600067ffffffffffffffff8211156142b6576142b561462e565b5b6142bf8261465d565b9050602081019050919050565b6000819050602082019050919050565b600081519050919050565b600081519050919050565b600081519050919050565b6000602082019050919050565b600082825260208201905092915050565b600082825260208201905092915050565b600081905092915050565b600082825260208201905092915050565b600081905092915050565b600061435e82614478565b915061436983614478565b9250827fffffffffffffffffffffffffffffffffffffffffffffffffffffffffffffffff0382111561439e5761439d6145a1565b5b828201905092915050565b60006143b482614478565b91506143bf83614478565b9250826143cf576143ce6145d0565b5b828204905092915050565b60006143e582614478565b91506143f083614478565b925082821015614403576144026145a1565b5b828203905092915050565b600061441982614458565b9050919050565b60008115159050919050565b60007fffffffff0000000000000000000000000000000000000000000000000000000082169050919050565b600073ffffffffffffffffffffffffffffffffffffffff82169050919050565b6000819050919050565b82818337600083830152505050565b60005b838110156144af578082015181840152602081019050614494565b838111156144be576000848401525b50505050565b600060028204905060018216806144dc57607f821691505b602082108114156144f0576144ef6145ff565b5b50919050565b6144ff8261465d565b810181811067ffffffffffffffff8211171561451e5761451d61462e565b5b80604052505050565b600061453282614478565b91507fffffffffffffffffffffffffffffffffffffffffffffffffffffffffffffffff821415614565576145646145a1565b5b600182019050919050565b600061457b82614478565b915061458683614478565b925082614596576145956145d0565b5b828206905092915050565b7f4e487b7100000000000000000000000000000000000000000000000000000000600052601160045260246000fd5b7f4e487b7100000000000000000000000000000000000000000000000000000000600052601260045260246000fd5b7f4e487b7100000000000000000000000000000000000000000000000000000000600052602260045260246000fd5b7f4e487b7100000000000000000000000000000000000000000000000000000000600052604160045260246000fd5b6000601f19601f8301169050919050565b7f596f7520776f6e207468652061756374696f6e20616e642063616e6e6f74207460008201527f616b6520796f757220626964206261636b210000000000000000000000000000602082015250565b7f455243373231456e756d657261626c653a206f776e657220696e646578206f7560008201527f74206f6620626f756e6473000000000000000000000000000000000000000000602082015250565b7f4552433732313a207472616e7366657220746f206e6f6e20455243373231526560008201527f63656976657220696d706c656d656e7465720000000000000000000000000000602082015250565b7f4f776e61626c653a206e6577206f776e657220697320746865207a65726f206160008201527f6464726573730000000000000000000000000000000000000000000000000000602082015250565b7f4552433732313a207472616e736665722066726f6d20696e636f72726563742060008201527f6f776e6572000000000000000000000000000000000000000000000000000000602082015250565b7f4552433732313a20746f6b656e20616c7265616479206d696e74656400000000600082015250565b7f4552433732313a207472616e7366657220746f20746865207a65726f2061646460008201527f7265737300000000000000000000000000000000000000000000000000000000602082015250565b7f4552433732313a20617070726f766520746f2063616c6c657200000000000000600082015250565b7f4552433732313a206f70657261746f7220717565727920666f72206e6f6e657860008201527f697374656e7420746f6b656e0000000000000000000000000000000000000000602082015250565b7f496e76616c696420546f6b656e20494400000000000000000000000000000000600082015250565b7f42696420416d6f756e742073686f756c6420626520686967686572207468616e60008201527f2074686520686967686573742042696400000000000000000000000000000000602082015250565b7f4552433732313a20617070726f76652063616c6c6572206973206e6f74206f7760008201527f6e6572206e6f7220617070726f76656420666f7220616c6c0000000000000000602082015250565b7f4552433732313a2062616c616e636520717565727920666f7220746865207a6560008201527f726f206164647265737300000000000000000000000000000000000000000000602082015250565b7f4552433732313a206f776e657220717565727920666f72206e6f6e657869737460008201527f656e7420746f6b656e0000000000000000000000000000000000000000000000602082015250565b7f4552433732313a206d696e7420746f20746865207a65726f2061646472657373600082015250565b7f4e6f206574686572206c65667420746f20776974686472617700000000000000600082015250565b7f4552433732313a20617070726f76656420717565727920666f72206e6f6e657860008201527f697374656e7420746f6b656e0000000000000000000000000000000000000000602082015250565b7f4f776e61626c653a2063616c6c6572206973206e6f7420746865206f776e6572600082015250565b7f41756374696f6e20666f722074686520746f6b656e2068617320656e64656400600082015250565b7f4552433732314d657461646174613a2055524920717565727920666f72206e6f60008201527f6e6578697374656e7420746f6b656e0000000000000000000000000000000000602082015250565b7f4e4654732073686f7564206265206d696e7465642066697273742e0000000000600082015250565b7f4552433732313a20617070726f76616c20746f2063757272656e74206f776e6560008201527f7200000000000000000000000000000000000000000000000000000000000000602082015250565b50565b7f4e6f20626964206c65667420746f207769746864726177000000000000000000600082015250565b7f5472616e73666572206661696c65642e00000000000000000000000000000000600082015250565b7f4552433732313a207472616e736665722063616c6c6572206973206e6f74206f60008201527f776e6572206e6f7220617070726f766564000000000000000000000000000000602082015250565b7f455243373231456e756d657261626c653a20676c6f62616c20696e646578206f60008201527f7574206f6620626f756e64730000000000000000000000000000000000000000602082015250565b614d048161440e565b8114614d0f57600080fd5b50565b614d1b81614420565b8114614d2657600080fd5b50565b614d328161442c565b8114614d3d57600080fd5b50565b614d4981614478565b8114614d5457600080fd5b5056fea2646970667358221220f71485a84259a8a2c813cc8a8821970223acd54c7bd7de91cdb132dcbdf573d364736f6c63430008040033",
  "linkReferences": {},
  "deployedLinkReferences": {}
}