{
  "_format": "hh-sol-artifact-1",
  "contractName": "NFTMOD",
  "sourceName": "contracts/AuctionMod.sol",
  "abi": [
    {
      "inputs": [
        {
          "internalType": "string",
          "name": "baseURI",
          "type": "string"
        }
      ],
      "stateMutability": "nonpayable",
      "type": "constructor"
    },
    {
      "anonymous": false,
      "inputs": [
        {
          "indexed": true,
          "internalType": "address",
          "name": "owner",
          "type": "address"
        },
        {
          "indexed": true,
          "internalType": "address",
          "name": "approved",
          "type": "address"
        },
        {
          "indexed": true,
          "internalType": "uint256",
          "name": "tokenId",
          "type": "uint256"
        }
      ],
      "name": "Approval",
      "type": "event"
    },
    {
      "anonymous": false,
      "inputs": [
        {
          "indexed": true,
          "internalType": "address",
          "name": "owner",
          "type": "address"
        },
        {
          "indexed": true,
          "internalType": "address",
          "name": "operator",
          "type": "address"
        },
        {
          "indexed": false,
          "internalType": "bool",
          "name": "approved",
          "type": "bool"
        }
      ],
      "name": "ApprovalForAll",
      "type": "event"
    },
    {
      "anonymous": false,
      "inputs": [
        {
          "indexed": true,
          "internalType": "uint256",
          "name": "auctionID",
          "type": "uint256"
        },
        {
          "indexed": true,
          "internalType": "uint256",
          "name": "tokenID",
          "type": "uint256"
        },
        {
          "indexed": false,
          "internalType": "uint256",
          "name": "startTime",
          "type": "uint256"
        },
        {
          "indexed": false,
          "internalType": "uint256",
          "name": "endTime",
          "type": "uint256"
        }
      ],
      "name": "AuctionCreated",
      "type": "event"
    },
    {
      "anonymous": false,
      "inputs": [
        {
          "indexed": true,
          "internalType": "uint256",
          "name": "auctionID",
          "type": "uint256"
        },
        {
          "indexed": false,
          "internalType": "uint256",
          "name": "amount",
          "type": "uint256"
        },
        {
          "indexed": false,
          "internalType": "address",
          "name": "bidder",
          "type": "address"
        }
      ],
      "name": "BidAmountWithdrawn",
      "type": "event"
    },
    {
      "anonymous": false,
      "inputs": [
        {
          "indexed": true,
          "internalType": "uint256",
          "name": "auctionID",
          "type": "uint256"
        },
        {
          "indexed": true,
          "internalType": "uint256",
          "name": "tokenID",
          "type": "uint256"
        },
        {
          "indexed": false,
          "internalType": "uint256",
          "name": "bidAmount",
          "type": "uint256"
        },
        {
          "indexed": false,
          "internalType": "address",
          "name": "bidder",
          "type": "address"
        }
      ],
      "name": "BidSubmitted",
      "type": "event"
    },
    {
      "anonymous": false,
      "inputs": [
        {
          "indexed": true,
          "internalType": "uint256",
          "name": "auctionID",
          "type": "uint256"
        },
        {
          "indexed": true,
          "internalType": "uint256",
          "name": "tokenID",
          "type": "uint256"
        },
        {
          "indexed": false,
          "internalType": "address",
          "name": "highestBidder",
          "type": "address"
        }
      ],
      "name": "BidTokenClaimed",
      "type": "event"
    },
    {
      "anonymous": false,
      "inputs": [
        {
          "indexed": true,
          "internalType": "address",
          "name": "previousOwner",
          "type": "address"
        },
        {
          "indexed": true,
          "internalType": "address",
          "name": "newOwner",
          "type": "address"
        }
      ],
      "name": "OwnershipTransferred",
      "type": "event"
    },
    {
      "anonymous": false,
      "inputs": [
        {
          "indexed": true,
          "internalType": "address",
          "name": "from",
          "type": "address"
        },
        {
          "indexed": true,
          "internalType": "address",
          "name": "to",
          "type": "address"
        },
        {
          "indexed": true,
          "internalType": "uint256",
          "name": "tokenId",
          "type": "uint256"
        }
      ],
      "name": "Transfer",
      "type": "event"
    },
    {
      "inputs": [
        {
          "internalType": "address",
          "name": "to",
          "type": "address"
        },
        {
          "internalType": "uint256",
          "name": "tokenId",
          "type": "uint256"
        }
      ],
      "name": "approve",
      "outputs": [],
      "stateMutability": "nonpayable",
      "type": "function"
    },
    {
      "inputs": [
        {
          "internalType": "uint256",
          "name": "",
          "type": "uint256"
        }
      ],
      "name": "auctions",
      "outputs": [
        {
          "internalType": "uint256",
          "name": "startTime",
          "type": "uint256"
        },
        {
          "internalType": "uint256",
          "name": "endTime",
          "type": "uint256"
        },
        {
          "internalType": "uint256",
          "name": "highestBid",
          "type": "uint256"
        },
        {
          "internalType": "address",
          "name": "highestBidder",
          "type": "address"
        },
        {
          "internalType": "uint256",
          "name": "tokenID",
          "type": "uint256"
        }
      ],
      "stateMutability": "view",
      "type": "function"
    },
    {
      "inputs": [
        {
          "internalType": "address",
          "name": "owner",
          "type": "address"
        }
      ],
      "name": "balanceOf",
      "outputs": [
        {
          "internalType": "uint256",
          "name": "",
          "type": "uint256"
        }
      ],
      "stateMutability": "view",
      "type": "function"
    },
    {
      "inputs": [],
      "name": "baseTokenURI",
      "outputs": [
        {
          "internalType": "string",
          "name": "",
          "type": "string"
        }
      ],
      "stateMutability": "view",
      "type": "function"
    },
    {
      "inputs": [
        {
          "internalType": "uint256",
          "name": "tokenId",
          "type": "uint256"
        }
      ],
      "name": "getApproved",
      "outputs": [
        {
          "internalType": "address",
          "name": "",
          "type": "address"
        }
      ],
      "stateMutability": "view",
      "type": "function"
    },
    {
      "inputs": [
        {
          "internalType": "address",
          "name": "owner",
          "type": "address"
        },
        {
          "internalType": "address",
          "name": "operator",
          "type": "address"
        }
      ],
      "name": "isApprovedForAll",
      "outputs": [
        {
          "internalType": "bool",
          "name": "",
          "type": "bool"
        }
      ],
      "stateMutability": "view",
      "type": "function"
    },
    {
      "inputs": [
        {
          "internalType": "uint256",
          "name": "_count",
          "type": "uint256"
        }
      ],
      "name": "mintNFTs",
      "outputs": [],
      "stateMutability": "payable",
      "type": "function"
    },
    {
      "inputs": [],
      "name": "mintTenNFTs",
      "outputs": [],
      "stateMutability": "nonpayable",
      "type": "function"
    },
    {
      "inputs": [],
      "name": "name",
      "outputs": [
        {
          "internalType": "string",
          "name": "",
          "type": "string"
        }
      ],
      "stateMutability": "view",
      "type": "function"
    },
    {
      "inputs": [],
      "name": "owner",
      "outputs": [
        {
          "internalType": "address",
          "name": "",
          "type": "address"
        }
      ],
      "stateMutability": "view",
      "type": "function"
    },
    {
      "inputs": [
        {
          "internalType": "uint256",
          "name": "tokenId",
          "type": "uint256"
        }
      ],
      "name": "ownerOf",
      "outputs": [
        {
          "internalType": "address",
          "name": "",
          "type": "address"
        }
      ],
      "stateMutability": "view",
      "type": "function"
    },
    {
      "inputs": [],
      "name": "renounceOwnership",
      "outputs": [],
      "stateMutability": "nonpayable",
      "type": "function"
    },
    {
      "inputs": [
        {
          "internalType": "address",
          "name": "from",
          "type": "address"
        },
        {
          "internalType": "address",
          "name": "to",
          "type": "address"
        },
        {
          "internalType": "uint256",
          "name": "tokenId",
          "type": "uint256"
        }
      ],
      "name": "safeTransferFrom",
      "outputs": [],
      "stateMutability": "nonpayable",
      "type": "function"
    },
    {
      "inputs": [
        {
          "internalType": "address",
          "name": "from",
          "type": "address"
        },
        {
          "internalType": "address",
          "name": "to",
          "type": "address"
        },
        {
          "internalType": "uint256",
          "name": "tokenId",
          "type": "uint256"
        },
        {
          "internalType": "bytes",
          "name": "_data",
          "type": "bytes"
        }
      ],
      "name": "safeTransferFrom",
      "outputs": [],
      "stateMutability": "nonpayable",
      "type": "function"
    },
    {
      "inputs": [
        {
          "internalType": "address",
          "name": "operator",
          "type": "address"
        },
        {
          "internalType": "bool",
          "name": "approved",
          "type": "bool"
        }
      ],
      "name": "setApprovalForAll",
      "outputs": [],
      "stateMutability": "nonpayable",
      "type": "function"
    },
    {
      "inputs": [
        {
          "internalType": "string",
          "name": "_baseTokenURI",
          "type": "string"
        }
      ],
      "name": "setBaseURI",
      "outputs": [],
      "stateMutability": "nonpayable",
      "type": "function"
    },
    {
      "inputs": [
        {
          "internalType": "uint256",
          "name": "tokenID",
          "type": "uint256"
        }
      ],
      "name": "startAuction",
      "outputs": [
        {
          "internalType": "uint256",
          "name": "",
          "type": "uint256"
        }
      ],
      "stateMutability": "nonpayable",
      "type": "function"
    },
    {
      "inputs": [
        {
          "internalType": "uint256",
          "name": "tokenID",
          "type": "uint256"
        }
      ],
      "name": "submitBid",
      "outputs": [],
      "stateMutability": "payable",
      "type": "function"
    },
    {
      "inputs": [
        {
          "internalType": "bytes4",
          "name": "interfaceId",
          "type": "bytes4"
        }
      ],
      "name": "supportsInterface",
      "outputs": [
        {
          "internalType": "bool",
          "name": "",
          "type": "bool"
        }
      ],
      "stateMutability": "view",
      "type": "function"
    },
    {
      "inputs": [],
      "name": "symbol",
      "outputs": [
        {
          "internalType": "string",
          "name": "",
          "type": "string"
        }
      ],
      "stateMutability": "view",
      "type": "function"
    },
    {
      "inputs": [
        {
          "internalType": "uint256",
          "name": "index",
          "type": "uint256"
        }
      ],
      "name": "tokenByIndex",
      "outputs": [
        {
          "internalType": "uint256",
          "name": "",
          "type": "uint256"
        }
      ],
      "stateMutability": "view",
      "type": "function"
    },
    {
      "inputs": [
        {
          "internalType": "address",
          "name": "owner",
          "type": "address"
        },
        {
          "internalType": "uint256",
          "name": "index",
          "type": "uint256"
        }
      ],
      "name": "tokenOfOwnerByIndex",
      "outputs": [
        {
          "internalType": "uint256",
          "name": "",
          "type": "uint256"
        }
      ],
      "stateMutability": "view",
      "type": "function"
    },
    {
      "inputs": [
        {
          "internalType": "uint256",
          "name": "tokenId",
          "type": "uint256"
        }
      ],
      "name": "tokenURI",
      "outputs": [
        {
          "internalType": "string",
          "name": "",
          "type": "string"
        }
      ],
      "stateMutability": "view",
      "type": "function"
    },
    {
      "inputs": [
        {
          "internalType": "address",
          "name": "_owner",
          "type": "address"
        }
      ],
      "name": "tokensOfOwner",
      "outputs": [
        {
          "internalType": "uint256[]",
          "name": "",
          "type": "uint256[]"
        }
      ],
      "stateMutability": "view",
      "type": "function"
    },
    {
      "inputs": [],
      "name": "totalSupply",
      "outputs": [
        {
          "internalType": "uint256",
          "name": "",
          "type": "uint256"
        }
      ],
      "stateMutability": "view",
      "type": "function"
    },
    {
      "inputs": [
        {
          "internalType": "address",
          "name": "from",
          "type": "address"
        },
        {
          "internalType": "address",
          "name": "to",
          "type": "address"
        },
        {
          "internalType": "uint256",
          "name": "tokenId",
          "type": "uint256"
        }
      ],
      "name": "transferFrom",
      "outputs": [],
      "stateMutability": "nonpayable",
      "type": "function"
    },
    {
      "inputs": [
        {
          "internalType": "address",
          "name": "newOwner",
          "type": "address"
        }
      ],
      "name": "transferOwnership",
      "outputs": [],
      "stateMutability": "nonpayable",
      "type": "function"
    },
    {
      "inputs": [],
      "name": "withdraw",
      "outputs": [],
      "stateMutability": "payable",
      "type": "function"
    },
    {
      "inputs": [
        {
          "internalType": "uint256",
          "name": "tokenID",
          "type": "uint256"
        }
      ],
      "name": "withdrawFromAuction",
      "outputs": [],
      "stateMutability": "nonpayable",
      "type": "function"
    }
  ],
  "bytecode": "0x60806040523480156200001157600080fd5b5060405162004e4738038062004e478339818101604052810190620000379190620003d4565b6040518060400160405280600681526020017f4d794e46547300000000000000000000000000000000000000000000000000008152506040518060400160405280600381526020017f4e465400000000000000000000000000000000000000000000000000000000008152508160009080519060200190620000bb929190620002b2565b508060019080519060200190620000d4929190620002b2565b505050620000f7620000eb6200010f60201b60201c565b6200011760201b60201c565b6200010881620001dd60201b60201c565b506200060c565b600033905090565b6000600a60009054906101000a900473ffffffffffffffffffffffffffffffffffffffff16905081600a60006101000a81548173ffffffffffffffffffffffffffffffffffffffff021916908373ffffffffffffffffffffffffffffffffffffffff1602179055508173ffffffffffffffffffffffffffffffffffffffff168173ffffffffffffffffffffffffffffffffffffffff167f8be0079c531659141344cd1fd0a4f28419497f9722a3daafe3b4186f6b6457e060405160405180910390a35050565b620001ed6200010f60201b60201c565b73ffffffffffffffffffffffffffffffffffffffff16620002136200028860201b60201c565b73ffffffffffffffffffffffffffffffffffffffff16146200026c576040517f08c379a0000000000000000000000000000000000000000000000000000000008152600401620002639062000440565b60405180910390fd5b806010908051906020019062000284929190620002b2565b5050565b6000600a60009054906101000a900473ffffffffffffffffffffffffffffffffffffffff16905090565b828054620002c09062000508565b90600052602060002090601f016020900481019282620002e4576000855562000330565b82601f10620002ff57805160ff191683800117855562000330565b8280016001018555821562000330579182015b828111156200032f57825182559160200191906001019062000312565b5b5090506200033f919062000343565b5090565b5b808211156200035e57600081600090555060010162000344565b5090565b60006200037962000373846200048b565b62000462565b9050828152602081018484840111156200039257600080fd5b6200039f848285620004d2565b509392505050565b600082601f830112620003b957600080fd5b8151620003cb84826020860162000362565b91505092915050565b600060208284031215620003e757600080fd5b600082015167ffffffffffffffff8111156200040257600080fd5b6200041084828501620003a7565b91505092915050565b600062000428602083620004c1565b91506200043582620005e3565b602082019050919050565b600060208201905081810360008301526200045b8162000419565b9050919050565b60006200046e62000481565b90506200047c82826200053e565b919050565b6000604051905090565b600067ffffffffffffffff821115620004a957620004a8620005a3565b5b620004b482620005d2565b9050602081019050919050565b600082825260208201905092915050565b60005b83811015620004f2578082015181840152602081019050620004d5565b8381111562000502576000848401525b50505050565b600060028204905060018216806200052157607f821691505b6020821081141562000538576200053762000574565b5b50919050565b6200054982620005d2565b810181811067ffffffffffffffff821117156200056b576200056a620005a3565b5b80604052505050565b7f4e487b7100000000000000000000000000000000000000000000000000000000600052602260045260246000fd5b7f4e487b7100000000000000000000000000000000000000000000000000000000600052604160045260246000fd5b6000601f19601f8301169050919050565b7f4f776e61626c653a2063616c6c6572206973206e6f7420746865206f776e6572600082015250565b61482b806200061c6000396000f3fe6080604052600436106101c25760003560e01c8063571a26a0116100f75780638fc60b8e11610095578063c87b56dd11610064578063c87b56dd1461062b578063d547cfb714610668578063e985e9c514610693578063f2fde38b146106d0576101c2565b80638fc60b8e1461059757806395d89b41146105ae578063a22cb465146105d9578063b88d4fde14610602576101c2565b8063715018a6116100d1578063715018a6146104fc57806374bdda15146105135780638462151c1461052f5780638da5cb5b1461056c576101c2565b8063571a26a0146104415780636352211e1461048257806370a08231146104bf576101c2565b80632f745c5911610164578063422927ad1161013e578063422927ad1461038957806342842e0e146103b25780634f6ccce7146103db57806355f804b314610418576101c2565b80632f745c59146103265780633b4b1381146103635780633ccfd60b1461037f576101c2565b8063081812fc116101a0578063081812fc1461026c578063095ea7b3146102a957806318160ddd146102d257806323b872dd146102fd576101c2565b806301ffc9a7146101c7578063065de74c1461020457806306fdde0314610241575b600080fd5b3480156101d357600080fd5b506101ee60048036038101906101e991906132fa565b6106f9565b6040516101fb9190613938565b60405180910390f35b34801561021057600080fd5b5061022b6004803603810190610226919061338d565b610773565b6040516102389190613c75565b60405180910390f35b34801561024d57600080fd5b5061025661095f565b6040516102639190613953565b60405180910390f35b34801561027857600080fd5b50610293600480360381019061028e919061338d565b6109f1565b6040516102a091906138af565b60405180910390f35b3480156102b557600080fd5b506102d060048036038101906102cb91906132be565b610a76565b005b3480156102de57600080fd5b506102e7610b8e565b6040516102f49190613c75565b60405180910390f35b34801561030957600080fd5b50610324600480360381019061031f91906131b8565b610b9b565b005b34801561033257600080fd5b5061034d600480360381019061034891906132be565b610bfb565b60405161035a9190613c75565b60405180910390f35b61037d6004803603810190610378919061338d565b610ca0565b005b610387610cca565b005b34801561039557600080fd5b506103b060048036038101906103ab919061338d565b610e3e565b005b3480156103be57600080fd5b506103d960048036038101906103d491906131b8565b610f3c565b005b3480156103e757600080fd5b5061040260048036038101906103fd919061338d565b610f5c565b60405161040f9190613c75565b60405180910390f35b34801561042457600080fd5b5061043f600480360381019061043a919061334c565b610ff3565b005b34801561044d57600080fd5b506104686004803603810190610463919061338d565b611089565b604051610479959493929190613ce2565b60405180910390f35b34801561048e57600080fd5b506104a960048036038101906104a4919061338d565b6110df565b6040516104b691906138af565b60405180910390f35b3480156104cb57600080fd5b506104e660048036038101906104e19190613153565b611191565b6040516104f39190613c75565b60405180910390f35b34801561050857600080fd5b50610511611249565b005b61052d6004803603810190610528919061338d565b6112d1565b005b34801561053b57600080fd5b5061055660048036038101906105519190613153565b611654565b6040516105639190613916565b60405180910390f35b34801561057857600080fd5b5061058161174e565b60405161058e91906138af565b60405180910390f35b3480156105a357600080fd5b506105ac611778565b005b3480156105ba57600080fd5b506105c361181e565b6040516105d09190613953565b60405180910390f35b3480156105e557600080fd5b5061060060048036038101906105fb9190613282565b6118b0565b005b34801561060e57600080fd5b5061062960048036038101906106249190613207565b6118c6565b005b34801561063757600080fd5b50610652600480360381019061064d919061338d565b611928565b60405161065f9190613953565b60405180910390f35b34801561067457600080fd5b5061067d6119cf565b60405161068a9190613953565b60405180910390f35b34801561069f57600080fd5b506106ba60048036038101906106b5919061317c565b611a5d565b6040516106c79190613938565b60405180910390f35b3480156106dc57600080fd5b506106f760048036038101906106f29190613153565b611af1565b005b60007f780e9d63000000000000000000000000000000000000000000000000000000007bffffffffffffffffffffffffffffffffffffffffffffffffffffffff1916827bffffffffffffffffffffffffffffffffffffffffffffffffffffffff1916148061076c575061076b82611be9565b5b9050919050565b600061077d611ccb565b73ffffffffffffffffffffffffffffffffffffffff1661079b61174e565b73ffffffffffffffffffffffffffffffffffffffff16146107f1576040517f08c379a00000000000000000000000000000000000000000000000000000000081526004016107e890613b95565b60405180910390fd5b6000600d600084815260200190815260200160002054905042600b60008381526020019081526020016000206001015410610861576040517f08c379a0000000000000000000000000000000000000000000000000000000008152600401610858906139b5565b60405180910390fd5b600061086d600e611cd3565b905042600b600083815260200190815260200160002060000181905550603c426108979190613e43565b600b60008381526020019081526020016000206001018190555083600b60008381526020019081526020016000206004018190555080600d60008681526020019081526020016000208190555083817fa9c8dfcda5664a5a124c713e386da27de87432d5b668e79458501eb296389ba7600b600085815260200190815260200160002060000154600b600086815260200190815260200160002060010154604051610943929190613cb9565b60405180910390a3610955600e611ce1565b8092505050919050565b60606000805461096e90613fb4565b80601f016020809104026020016040519081016040528092919081815260200182805461099a90613fb4565b80156109e75780601f106109bc576101008083540402835291602001916109e7565b820191906000526020600020905b8154815290600101906020018083116109ca57829003601f168201915b5050505050905090565b60006109fc82611cf7565b610a3b576040517f08c379a0000000000000000000000000000000000000000000000000000000008152600401610a3290613b75565b60405180910390fd5b6004600083815260200190815260200160002060009054906101000a900473ffffffffffffffffffffffffffffffffffffffff169050919050565b6000610a81826110df565b90508073ffffffffffffffffffffffffffffffffffffffff168373ffffffffffffffffffffffffffffffffffffffff161415610af2576040517f08c379a0000000000000000000000000000000000000000000000000000000008152600401610ae990613bf5565b60405180910390fd5b8073ffffffffffffffffffffffffffffffffffffffff16610b11611ccb565b73ffffffffffffffffffffffffffffffffffffffff161480610b405750610b3f81610b3a611ccb565b611a5d565b5b610b7f576040517f08c379a0000000000000000000000000000000000000000000000000000000008152600401610b7690613ad5565b60405180910390fd5b610b898383611d63565b505050565b6000600880549050905090565b610bac610ba6611ccb565b82611e1c565b610beb576040517f08c379a0000000000000000000000000000000000000000000000000000000008152600401610be290613c35565b60405180910390fd5b610bf6838383611efa565b505050565b6000610c0683611191565b8210610c47576040517f08c379a0000000000000000000000000000000000000000000000000000000008152600401610c3e90613975565b60405180910390fd5b600660008473ffffffffffffffffffffffffffffffffffffffff1673ffffffffffffffffffffffffffffffffffffffff168152602001908152602001600020600083815260200190815260200160002054905092915050565b60005b81811015610cc657610cb3612161565b8080610cbe90614017565b915050610ca3565b5050565b610cd2611ccb565b73ffffffffffffffffffffffffffffffffffffffff16610cf061174e565b73ffffffffffffffffffffffffffffffffffffffff1614610d46576040517f08c379a0000000000000000000000000000000000000000000000000000000008152600401610d3d90613b95565b60405180910390fd5b600047905060008111610d8e576040517f08c379a0000000000000000000000000000000000000000000000000000000008152600401610d8590613b55565b60405180910390fd5b60003373ffffffffffffffffffffffffffffffffffffffff1682604051610db49061389a565b60006040518083038185875af1925050503d8060008114610df1576040519150601f19603f3d011682016040523d82523d6000602084013e610df6565b606091505b5050905080610e3a576040517f08c379a0000000000000000000000000000000000000000000000000000000008152600401610e3190613c15565b60405180910390fd5b5050565b6000600d60008381526020019081526020016000205490503373ffffffffffffffffffffffffffffffffffffffff16600b600083815260200190815260200160002060030160009054906101000a900473ffffffffffffffffffffffffffffffffffffffff1673ffffffffffffffffffffffffffffffffffffffff161415610f3857610ee8610ecb61174e565b33600b600085815260200190815260200160002060040154611efa565b600b600082815260200190815260200160002060040154817f02c960149e3d3b6374f54beee5d16351f44f06664fde68ab0e57a9e5b49c6df333604051610f2f91906138af565b60405180910390a35b5050565b610f57838383604051806020016040528060008152506118c6565b505050565b6000610f66610b8e565b8210610fa7576040517f08c379a0000000000000000000000000000000000000000000000000000000008152600401610f9e90613c55565b60405180910390fd5b60088281548110610fe1577f4e487b7100000000000000000000000000000000000000000000000000000000600052603260045260246000fd5b90600052602060002001549050919050565b610ffb611ccb565b73ffffffffffffffffffffffffffffffffffffffff1661101961174e565b73ffffffffffffffffffffffffffffffffffffffff161461106f576040517f08c379a000000000000000000000000000000000000000000000000000000000815260040161106690613b95565b60405180910390fd5b8060109080519060200190611085929190612f77565b5050565b600b6020528060005260406000206000915090508060000154908060010154908060020154908060030160009054906101000a900473ffffffffffffffffffffffffffffffffffffffff16908060040154905085565b6000806002600084815260200190815260200160002060009054906101000a900473ffffffffffffffffffffffffffffffffffffffff169050600073ffffffffffffffffffffffffffffffffffffffff168173ffffffffffffffffffffffffffffffffffffffff161415611188576040517f08c379a000000000000000000000000000000000000000000000000000000000815260040161117f90613b15565b60405180910390fd5b80915050919050565b60008073ffffffffffffffffffffffffffffffffffffffff168273ffffffffffffffffffffffffffffffffffffffff161415611202576040517f08c379a00000000000000000000000000000000000000000000000000000000081526004016111f990613af5565b60405180910390fd5b600360008373ffffffffffffffffffffffffffffffffffffffff1673ffffffffffffffffffffffffffffffffffffffff168152602001908152602001600020549050919050565b611251611ccb565b73ffffffffffffffffffffffffffffffffffffffff1661126f61174e565b73ffffffffffffffffffffffffffffffffffffffff16146112c5576040517f08c379a00000000000000000000000000000000000000000000000000000000081526004016112bc90613b95565b60405180910390fd5b6112cf6000612186565b565b6000600d600083815260200190815260200160002054905081600b60008381526020019081526020016000206004015414611341576040517f08c379a000000000000000000000000000000000000000000000000000000000815260040161133890613a95565b60405180910390fd5b42600b60008381526020019081526020016000206001015411611399576040517f08c379a000000000000000000000000000000000000000000000000000000000815260040161139090613bb5565b60405180910390fd5b60006113fe600c600084815260200190815260200160002060003373ffffffffffffffffffffffffffffffffffffffff1673ffffffffffffffffffffffffffffffffffffffff168152602001908152602001600020543461224c90919063ffffffff16565b905080600b60008581526020019081526020016000206002015410611458576040517f08c379a000000000000000000000000000000000000000000000000000000000815260040161144f90613ab5565b60405180910390fd5b6000600c600084815260200190815260200160002060003373ffffffffffffffffffffffffffffffffffffffff1673ffffffffffffffffffffffffffffffffffffffff16815260200190815260200160002054111561154f576000600c600084815260200190815260200160002060003373ffffffffffffffffffffffffffffffffffffffff1673ffffffffffffffffffffffffffffffffffffffff1681526020019081526020016000205490503373ffffffffffffffffffffffffffffffffffffffff166108fc829081150290604051600060405180830381858888f1935050505015801561154c573d6000803e3d6000fd5b50505b80600c600084815260200190815260200160002060003373ffffffffffffffffffffffffffffffffffffffff1673ffffffffffffffffffffffffffffffffffffffff1681526020019081526020016000208190555080600b60008481526020019081526020016000206002018190555033600b600084815260200190815260200160002060030160006101000a81548173ffffffffffffffffffffffffffffffffffffffff021916908373ffffffffffffffffffffffffffffffffffffffff16021790555082827f422ea9e39389435ac3a5f12b4300add2e852594854890e86d04e85f018b94b108333604051611647929190613c90565b60405180910390a3505050565b6060600061166183611191565b905060008167ffffffffffffffff8111156116a5577f4e487b7100000000000000000000000000000000000000000000000000000000600052604160045260246000fd5b6040519080825280602002602001820160405280156116d35781602001602082028036833780820191505090505b50905060005b82811015611743576116eb8582610bfb565b828281518110611724577f4e487b7100000000000000000000000000000000000000000000000000000000600052603260045260246000fd5b602002602001018181525050808061173b90614017565b9150506116d9565b508092505050919050565b6000600a60009054906101000a900473ffffffffffffffffffffffffffffffffffffffff16905090565b611780611ccb565b73ffffffffffffffffffffffffffffffffffffffff1661179e61174e565b73ffffffffffffffffffffffffffffffffffffffff16146117f4576040517f08c379a00000000000000000000000000000000000000000000000000000000081526004016117eb90613b95565b60405180910390fd5b60005b600a81101561181b57611808612161565b808061181390614017565b9150506117f7565b50565b60606001805461182d90613fb4565b80601f016020809104026020016040519081016040528092919081815260200182805461185990613fb4565b80156118a65780601f1061187b576101008083540402835291602001916118a6565b820191906000526020600020905b81548152906001019060200180831161188957829003601f168201915b5050505050905090565b6118c26118bb611ccb565b8383612262565b5050565b6118d76118d1611ccb565b83611e1c565b611916576040517f08c379a000000000000000000000000000000000000000000000000000000000815260040161190d90613c35565b60405180910390fd5b611922848484846123cf565b50505050565b606061193382611cf7565b611972576040517f08c379a000000000000000000000000000000000000000000000000000000000815260040161196990613bd5565b60405180910390fd5b600061197c61242b565b9050600081511161199c57604051806020016040528060008152506119c7565b806119a6846124bd565b6040516020016119b7929190613876565b6040516020818303038152906040525b915050919050565b601080546119dc90613fb4565b80601f0160208091040260200160405190810160405280929190818152602001828054611a0890613fb4565b8015611a555780601f10611a2a57610100808354040283529160200191611a55565b820191906000526020600020905b815481529060010190602001808311611a3857829003601f168201915b505050505081565b6000600560008473ffffffffffffffffffffffffffffffffffffffff1673ffffffffffffffffffffffffffffffffffffffff16815260200190815260200160002060008373ffffffffffffffffffffffffffffffffffffffff1673ffffffffffffffffffffffffffffffffffffffff16815260200190815260200160002060009054906101000a900460ff16905092915050565b611af9611ccb565b73ffffffffffffffffffffffffffffffffffffffff16611b1761174e565b73ffffffffffffffffffffffffffffffffffffffff1614611b6d576040517f08c379a0000000000000000000000000000000000000000000000000000000008152600401611b6490613b95565b60405180910390fd5b600073ffffffffffffffffffffffffffffffffffffffff168173ffffffffffffffffffffffffffffffffffffffff161415611bdd576040517f08c379a0000000000000000000000000000000000000000000000000000000008152600401611bd4906139d5565b60405180910390fd5b611be681612186565b50565b60007f80ac58cd000000000000000000000000000000000000000000000000000000007bffffffffffffffffffffffffffffffffffffffffffffffffffffffff1916827bffffffffffffffffffffffffffffffffffffffffffffffffffffffff19161480611cb457507f5b5e139f000000000000000000000000000000000000000000000000000000007bffffffffffffffffffffffffffffffffffffffffffffffffffffffff1916827bffffffffffffffffffffffffffffffffffffffffffffffffffffffff1916145b80611cc45750611cc38261266a565b5b9050919050565b600033905090565b600081600001549050919050565b6001816000016000828254019250508190555050565b60008073ffffffffffffffffffffffffffffffffffffffff166002600084815260200190815260200160002060009054906101000a900473ffffffffffffffffffffffffffffffffffffffff1673ffffffffffffffffffffffffffffffffffffffff1614159050919050565b816004600083815260200190815260200160002060006101000a81548173ffffffffffffffffffffffffffffffffffffffff021916908373ffffffffffffffffffffffffffffffffffffffff160217905550808273ffffffffffffffffffffffffffffffffffffffff16611dd6836110df565b73ffffffffffffffffffffffffffffffffffffffff167f8c5be1e5ebec7d5bd14f71427d1e84f3dd0314c0f7b2291e5b200ac8c7c3b92560405160405180910390a45050565b6000611e2782611cf7565b611e66576040517f08c379a0000000000000000000000000000000000000000000000000000000008152600401611e5d90613a75565b60405180910390fd5b6000611e71836110df565b90508073ffffffffffffffffffffffffffffffffffffffff168473ffffffffffffffffffffffffffffffffffffffff161480611ee057508373ffffffffffffffffffffffffffffffffffffffff16611ec8846109f1565b73ffffffffffffffffffffffffffffffffffffffff16145b80611ef15750611ef08185611a5d565b5b91505092915050565b8273ffffffffffffffffffffffffffffffffffffffff16611f1a826110df565b73ffffffffffffffffffffffffffffffffffffffff1614611f70576040517f08c379a0000000000000000000000000000000000000000000000000000000008152600401611f67906139f5565b60405180910390fd5b600073ffffffffffffffffffffffffffffffffffffffff168273ffffffffffffffffffffffffffffffffffffffff161415611fe0576040517f08c379a0000000000000000000000000000000000000000000000000000000008152600401611fd790613a35565b60405180910390fd5b611feb8383836126d4565b611ff6600082611d63565b6001600360008573ffffffffffffffffffffffffffffffffffffffff1673ffffffffffffffffffffffffffffffffffffffff16815260200190815260200160002060008282546120469190613eca565b925050819055506001600360008473ffffffffffffffffffffffffffffffffffffffff1673ffffffffffffffffffffffffffffffffffffffff168152602001908152602001600020600082825461209d9190613e43565b92505081905550816002600083815260200190815260200160002060006101000a81548173ffffffffffffffffffffffffffffffffffffffff021916908373ffffffffffffffffffffffffffffffffffffffff160217905550808273ffffffffffffffffffffffffffffffffffffffff168473ffffffffffffffffffffffffffffffffffffffff167fddf252ad1be2c89b69c2b068fc378daa952ba7f163c4a11628f55a4df523b3ef60405160405180910390a461215c8383836127e8565b505050565b600061216d600f611cd3565b905061217933826127ed565b612183600f611ce1565b50565b6000600a60009054906101000a900473ffffffffffffffffffffffffffffffffffffffff16905081600a60006101000a81548173ffffffffffffffffffffffffffffffffffffffff021916908373ffffffffffffffffffffffffffffffffffffffff1602179055508173ffffffffffffffffffffffffffffffffffffffff168173ffffffffffffffffffffffffffffffffffffffff167f8be0079c531659141344cd1fd0a4f28419497f9722a3daafe3b4186f6b6457e060405160405180910390a35050565b6000818361225a9190613e43565b905092915050565b8173ffffffffffffffffffffffffffffffffffffffff168373ffffffffffffffffffffffffffffffffffffffff1614156122d1576040517f08c379a00000000000000000000000000000000000000000000000000000000081526004016122c890613a55565b60405180910390fd5b80600560008573ffffffffffffffffffffffffffffffffffffffff1673ffffffffffffffffffffffffffffffffffffffff16815260200190815260200160002060008473ffffffffffffffffffffffffffffffffffffffff1673ffffffffffffffffffffffffffffffffffffffff16815260200190815260200160002060006101000a81548160ff0219169083151502179055508173ffffffffffffffffffffffffffffffffffffffff168373ffffffffffffffffffffffffffffffffffffffff167f17307eab39ab6107e8899845ad3d59bd9653f200f220920489ca2b5937696c31836040516123c29190613938565b60405180910390a3505050565b6123da848484611efa565b6123e68484848461280b565b612425576040517f08c379a000000000000000000000000000000000000000000000000000000000815260040161241c90613995565b60405180910390fd5b50505050565b60606010805461243a90613fb4565b80601f016020809104026020016040519081016040528092919081815260200182805461246690613fb4565b80156124b35780601f10612488576101008083540402835291602001916124b3565b820191906000526020600020905b81548152906001019060200180831161249657829003601f168201915b5050505050905090565b60606000821415612505576040518060400160405280600181526020017f30000000000000000000000000000000000000000000000000000000000000008152509050612665565b600082905060005b6000821461253757808061252090614017565b915050600a826125309190613e99565b915061250d565b60008167ffffffffffffffff811115612579577f4e487b7100000000000000000000000000000000000000000000000000000000600052604160045260246000fd5b6040519080825280601f01601f1916602001820160405280156125ab5781602001600182028036833780820191505090505b5090505b6000851461265e576001826125c49190613eca565b9150600a856125d39190614060565b60306125df9190613e43565b60f81b81838151811061261b577f4e487b7100000000000000000000000000000000000000000000000000000000600052603260045260246000fd5b60200101907effffffffffffffffffffffffffffffffffffffffffffffffffffffffffffff1916908160001a905350600a856126579190613e99565b94506125af565b8093505050505b919050565b60007f01ffc9a7000000000000000000000000000000000000000000000000000000007bffffffffffffffffffffffffffffffffffffffffffffffffffffffff1916827bffffffffffffffffffffffffffffffffffffffffffffffffffffffff1916149050919050565b6126df8383836129a2565b600073ffffffffffffffffffffffffffffffffffffffff168373ffffffffffffffffffffffffffffffffffffffff1614156127225761271d816129a7565b612761565b8173ffffffffffffffffffffffffffffffffffffffff168373ffffffffffffffffffffffffffffffffffffffff16146127605761275f83826129f0565b5b5b600073ffffffffffffffffffffffffffffffffffffffff168273ffffffffffffffffffffffffffffffffffffffff1614156127a45761279f81612b5d565b6127e3565b8273ffffffffffffffffffffffffffffffffffffffff168273ffffffffffffffffffffffffffffffffffffffff16146127e2576127e18282612ca0565b5b5b505050565b505050565b612807828260405180602001604052806000815250612d1f565b5050565b600061282c8473ffffffffffffffffffffffffffffffffffffffff16612d7a565b15612995578373ffffffffffffffffffffffffffffffffffffffff1663150b7a02612855611ccb565b8786866040518563ffffffff1660e01b815260040161287794939291906138ca565b602060405180830381600087803b15801561289157600080fd5b505af19250505080156128c257506040513d601f19601f820116820180604052508101906128bf9190613323565b60015b612945573d80600081146128f2576040519150601f19603f3d011682016040523d82523d6000602084013e6128f7565b606091505b5060008151141561293d576040517f08c379a000000000000000000000000000000000000000000000000000000000815260040161293490613995565b60405180910390fd5b805181602001fd5b63150b7a0260e01b7bffffffffffffffffffffffffffffffffffffffffffffffffffffffff1916817bffffffffffffffffffffffffffffffffffffffffffffffffffffffff19161491505061299a565b600190505b949350505050565b505050565b6008805490506009600083815260200190815260200160002081905550600881908060018154018082558091505060019003906000526020600020016000909190919091505550565b600060016129fd84611191565b612a079190613eca565b9050600060076000848152602001908152602001600020549050818114612aec576000600660008673ffffffffffffffffffffffffffffffffffffffff1673ffffffffffffffffffffffffffffffffffffffff168152602001908152602001600020600084815260200190815260200160002054905080600660008773ffffffffffffffffffffffffffffffffffffffff1673ffffffffffffffffffffffffffffffffffffffff168152602001908152602001600020600084815260200190815260200160002081905550816007600083815260200190815260200160002081905550505b6007600084815260200190815260200160002060009055600660008573ffffffffffffffffffffffffffffffffffffffff1673ffffffffffffffffffffffffffffffffffffffff16815260200190815260200160002060008381526020019081526020016000206000905550505050565b60006001600880549050612b719190613eca565b9050600060096000848152602001908152602001600020549050600060088381548110612bc7577f4e487b7100000000000000000000000000000000000000000000000000000000600052603260045260246000fd5b906000526020600020015490508060088381548110612c0f577f4e487b7100000000000000000000000000000000000000000000000000000000600052603260045260246000fd5b906000526020600020018190555081600960008381526020019081526020016000208190555060096000858152602001908152602001600020600090556008805480612c84577f4e487b7100000000000000000000000000000000000000000000000000000000600052603160045260246000fd5b6001900381819060005260206000200160009055905550505050565b6000612cab83611191565b905081600660008573ffffffffffffffffffffffffffffffffffffffff1673ffffffffffffffffffffffffffffffffffffffff168152602001908152602001600020600083815260200190815260200160002081905550806007600084815260200190815260200160002081905550505050565b612d298383612d9d565b612d36600084848461280b565b612d75576040517f08c379a0000000000000000000000000000000000000000000000000000000008152600401612d6c90613995565b60405180910390fd5b505050565b6000808273ffffffffffffffffffffffffffffffffffffffff163b119050919050565b600073ffffffffffffffffffffffffffffffffffffffff168273ffffffffffffffffffffffffffffffffffffffff161415612e0d576040517f08c379a0000000000000000000000000000000000000000000000000000000008152600401612e0490613b35565b60405180910390fd5b612e1681611cf7565b15612e56576040517f08c379a0000000000000000000000000000000000000000000000000000000008152600401612e4d90613a15565b60405180910390fd5b612e62600083836126d4565b6001600360008473ffffffffffffffffffffffffffffffffffffffff1673ffffffffffffffffffffffffffffffffffffffff1681526020019081526020016000206000828254612eb29190613e43565b92505081905550816002600083815260200190815260200160002060006101000a81548173ffffffffffffffffffffffffffffffffffffffff021916908373ffffffffffffffffffffffffffffffffffffffff160217905550808273ffffffffffffffffffffffffffffffffffffffff16600073ffffffffffffffffffffffffffffffffffffffff167fddf252ad1be2c89b69c2b068fc378daa952ba7f163c4a11628f55a4df523b3ef60405160405180910390a4612f73600083836127e8565b5050565b828054612f8390613fb4565b90600052602060002090601f016020900481019282612fa55760008555612fec565b82601f10612fbe57805160ff1916838001178555612fec565b82800160010185558215612fec579182015b82811115612feb578251825591602001919060010190612fd0565b5b509050612ff99190612ffd565b5090565b5b80821115613016576000816000905550600101612ffe565b5090565b600061302d61302884613d5a565b613d35565b90508281526020810184848401111561304557600080fd5b613050848285613f72565b509392505050565b600061306b61306684613d8b565b613d35565b90508281526020810184848401111561308357600080fd5b61308e848285613f72565b509392505050565b6000813590506130a581614799565b92915050565b6000813590506130ba816147b0565b92915050565b6000813590506130cf816147c7565b92915050565b6000815190506130e4816147c7565b92915050565b600082601f8301126130fb57600080fd5b813561310b84826020860161301a565b91505092915050565b600082601f83011261312557600080fd5b8135613135848260208601613058565b91505092915050565b60008135905061314d816147de565b92915050565b60006020828403121561316557600080fd5b600061317384828501613096565b91505092915050565b6000806040838503121561318f57600080fd5b600061319d85828601613096565b92505060206131ae85828601613096565b9150509250929050565b6000806000606084860312156131cd57600080fd5b60006131db86828701613096565b93505060206131ec86828701613096565b92505060406131fd8682870161313e565b9150509250925092565b6000806000806080858703121561321d57600080fd5b600061322b87828801613096565b945050602061323c87828801613096565b935050604061324d8782880161313e565b925050606085013567ffffffffffffffff81111561326a57600080fd5b613276878288016130ea565b91505092959194509250565b6000806040838503121561329557600080fd5b60006132a385828601613096565b92505060206132b4858286016130ab565b9150509250929050565b600080604083850312156132d157600080fd5b60006132df85828601613096565b92505060206132f08582860161313e565b9150509250929050565b60006020828403121561330c57600080fd5b600061331a848285016130c0565b91505092915050565b60006020828403121561333557600080fd5b6000613343848285016130d5565b91505092915050565b60006020828403121561335e57600080fd5b600082013567ffffffffffffffff81111561337857600080fd5b61338484828501613114565b91505092915050565b60006020828403121561339f57600080fd5b60006133ad8482850161313e565b91505092915050565b60006133c28383613858565b60208301905092915050565b6133d781613efe565b82525050565b60006133e882613dcc565b6133f28185613dfa565b93506133fd83613dbc565b8060005b8381101561342e57815161341588826133b6565b975061342083613ded565b925050600181019050613401565b5085935050505092915050565b61344481613f10565b82525050565b600061345582613dd7565b61345f8185613e0b565b935061346f818560208601613f81565b6134788161414d565b840191505092915050565b600061348e82613de2565b6134988185613e27565b93506134a8818560208601613f81565b6134b18161414d565b840191505092915050565b60006134c782613de2565b6134d18185613e38565b93506134e1818560208601613f81565b80840191505092915050565b60006134fa602b83613e27565b91506135058261415e565b604082019050919050565b600061351d603283613e27565b9150613528826141ad565b604082019050919050565b6000613540602283613e27565b915061354b826141fc565b604082019050919050565b6000613563602683613e27565b915061356e8261424b565b604082019050919050565b6000613586602583613e27565b91506135918261429a565b604082019050919050565b60006135a9601c83613e27565b91506135b4826142e9565b602082019050919050565b60006135cc602483613e27565b91506135d782614312565b604082019050919050565b60006135ef601983613e27565b91506135fa82614361565b602082019050919050565b6000613612602c83613e27565b915061361d8261438a565b604082019050919050565b6000613635601083613e27565b9150613640826143d9565b602082019050919050565b6000613658603083613e27565b915061366382614402565b604082019050919050565b600061367b603883613e27565b915061368682614451565b604082019050919050565b600061369e602a83613e27565b91506136a9826144a0565b604082019050919050565b60006136c1602983613e27565b91506136cc826144ef565b604082019050919050565b60006136e4602083613e27565b91506136ef8261453e565b602082019050919050565b6000613707601983613e27565b915061371282614567565b602082019050919050565b600061372a602c83613e27565b915061373582614590565b604082019050919050565b600061374d602083613e27565b9150613758826145df565b602082019050919050565b6000613770601f83613e27565b915061377b82614608565b602082019050919050565b6000613793602f83613e27565b915061379e82614631565b604082019050919050565b60006137b6602183613e27565b91506137c182614680565b604082019050919050565b60006137d9600083613e1c565b91506137e4826146cf565b600082019050919050565b60006137fc601083613e27565b9150613807826146d2565b602082019050919050565b600061381f603183613e27565b915061382a826146fb565b604082019050919050565b6000613842602c83613e27565b915061384d8261474a565b604082019050919050565b61386181613f68565b82525050565b61387081613f68565b82525050565b600061388282856134bc565b915061388e82846134bc565b91508190509392505050565b60006138a5826137cc565b9150819050919050565b60006020820190506138c460008301846133ce565b92915050565b60006080820190506138df60008301876133ce565b6138ec60208301866133ce565b6138f96040830185613867565b818103606083015261390b818461344a565b905095945050505050565b6000602082019050818103600083015261393081846133dd565b905092915050565b600060208201905061394d600083018461343b565b92915050565b6000602082019050818103600083015261396d8184613483565b905092915050565b6000602082019050818103600083015261398e816134ed565b9050919050565b600060208201905081810360008301526139ae81613510565b9050919050565b600060208201905081810360008301526139ce81613533565b9050919050565b600060208201905081810360008301526139ee81613556565b9050919050565b60006020820190508181036000830152613a0e81613579565b9050919050565b60006020820190508181036000830152613a2e8161359c565b9050919050565b60006020820190508181036000830152613a4e816135bf565b9050919050565b60006020820190508181036000830152613a6e816135e2565b9050919050565b60006020820190508181036000830152613a8e81613605565b9050919050565b60006020820190508181036000830152613aae81613628565b9050919050565b60006020820190508181036000830152613ace8161364b565b9050919050565b60006020820190508181036000830152613aee8161366e565b9050919050565b60006020820190508181036000830152613b0e81613691565b9050919050565b60006020820190508181036000830152613b2e816136b4565b9050919050565b60006020820190508181036000830152613b4e816136d7565b9050919050565b60006020820190508181036000830152613b6e816136fa565b9050919050565b60006020820190508181036000830152613b8e8161371d565b9050919050565b60006020820190508181036000830152613bae81613740565b9050919050565b60006020820190508181036000830152613bce81613763565b9050919050565b60006020820190508181036000830152613bee81613786565b9050919050565b60006020820190508181036000830152613c0e816137a9565b9050919050565b60006020820190508181036000830152613c2e816137ef565b9050919050565b60006020820190508181036000830152613c4e81613812565b9050919050565b60006020820190508181036000830152613c6e81613835565b9050919050565b6000602082019050613c8a6000830184613867565b92915050565b6000604082019050613ca56000830185613867565b613cb260208301846133ce565b9392505050565b6000604082019050613cce6000830185613867565b613cdb6020830184613867565b9392505050565b600060a082019050613cf76000830188613867565b613d046020830187613867565b613d116040830186613867565b613d1e60608301856133ce565b613d2b6080830184613867565b9695505050505050565b6000613d3f613d50565b9050613d4b8282613fe6565b919050565b6000604051905090565b600067ffffffffffffffff821115613d7557613d7461411e565b5b613d7e8261414d565b9050602081019050919050565b600067ffffffffffffffff821115613da657613da561411e565b5b613daf8261414d565b9050602081019050919050565b6000819050602082019050919050565b600081519050919050565b600081519050919050565b600081519050919050565b6000602082019050919050565b600082825260208201905092915050565b600082825260208201905092915050565b600081905092915050565b600082825260208201905092915050565b600081905092915050565b6000613e4e82613f68565b9150613e5983613f68565b9250827fffffffffffffffffffffffffffffffffffffffffffffffffffffffffffffffff03821115613e8e57613e8d614091565b5b828201905092915050565b6000613ea482613f68565b9150613eaf83613f68565b925082613ebf57613ebe6140c0565b5b828204905092915050565b6000613ed582613f68565b9150613ee083613f68565b925082821015613ef357613ef2614091565b5b828203905092915050565b6000613f0982613f48565b9050919050565b60008115159050919050565b60007fffffffff0000000000000000000000000000000000000000000000000000000082169050919050565b600073ffffffffffffffffffffffffffffffffffffffff82169050919050565b6000819050919050565b82818337600083830152505050565b60005b83811015613f9f578082015181840152602081019050613f84565b83811115613fae576000848401525b50505050565b60006002820490506001821680613fcc57607f821691505b60208210811415613fe057613fdf6140ef565b5b50919050565b613fef8261414d565b810181811067ffffffffffffffff8211171561400e5761400d61411e565b5b80604052505050565b600061402282613f68565b91507fffffffffffffffffffffffffffffffffffffffffffffffffffffffffffffffff82141561405557614054614091565b5b600182019050919050565b600061406b82613f68565b915061407683613f68565b925082614086576140856140c0565b5b828206905092915050565b7f4e487b7100000000000000000000000000000000000000000000000000000000600052601160045260246000fd5b7f4e487b7100000000000000000000000000000000000000000000000000000000600052601260045260246000fd5b7f4e487b7100000000000000000000000000000000000000000000000000000000600052602260045260246000fd5b7f4e487b7100000000000000000000000000000000000000000000000000000000600052604160045260246000fd5b6000601f19601f8301169050919050565b7f455243373231456e756d657261626c653a206f776e657220696e646578206f7560008201527f74206f6620626f756e6473000000000000000000000000000000000000000000602082015250565b7f4552433732313a207472616e7366657220746f206e6f6e20455243373231526560008201527f63656976657220696d706c656d656e7465720000000000000000000000000000602082015250565b7f41756374696f6e206f66207468652073616d65204e4654206973206f6e676f6960008201527f6e67000000000000000000000000000000000000000000000000000000000000602082015250565b7f4f776e61626c653a206e6577206f776e657220697320746865207a65726f206160008201527f6464726573730000000000000000000000000000000000000000000000000000602082015250565b7f4552433732313a207472616e736665722066726f6d20696e636f72726563742060008201527f6f776e6572000000000000000000000000000000000000000000000000000000602082015250565b7f4552433732313a20746f6b656e20616c7265616479206d696e74656400000000600082015250565b7f4552433732313a207472616e7366657220746f20746865207a65726f2061646460008201527f7265737300000000000000000000000000000000000000000000000000000000602082015250565b7f4552433732313a20617070726f766520746f2063616c6c657200000000000000600082015250565b7f4552433732313a206f70657261746f7220717565727920666f72206e6f6e657860008201527f697374656e7420746f6b656e0000000000000000000000000000000000000000602082015250565b7f496e76616c696420546f6b656e20494400000000000000000000000000000000600082015250565b7f42696420416d6f756e742073686f756c6420626520686967686572207468616e60008201527f2074686520686967686573742042696400000000000000000000000000000000602082015250565b7f4552433732313a20617070726f76652063616c6c6572206973206e6f74206f7760008201527f6e6572206e6f7220617070726f76656420666f7220616c6c0000000000000000602082015250565b7f4552433732313a2062616c616e636520717565727920666f7220746865207a6560008201527f726f206164647265737300000000000000000000000000000000000000000000602082015250565b7f4552433732313a206f776e657220717565727920666f72206e6f6e657869737460008201527f656e7420746f6b656e0000000000000000000000000000000000000000000000602082015250565b7f4552433732313a206d696e7420746f20746865207a65726f2061646472657373600082015250565b7f4e6f206574686572206c65667420746f20776974686472617700000000000000600082015250565b7f4552433732313a20617070726f76656420717565727920666f72206e6f6e657860008201527f697374656e7420746f6b656e0000000000000000000000000000000000000000602082015250565b7f4f776e61626c653a2063616c6c6572206973206e6f7420746865206f776e6572600082015250565b7f41756374696f6e20666f722074686520746f6b656e2068617320656e64656400600082015250565b7f4552433732314d657461646174613a2055524920717565727920666f72206e6f60008201527f6e6578697374656e7420746f6b656e0000000000000000000000000000000000602082015250565b7f4552433732313a20617070726f76616c20746f2063757272656e74206f776e6560008201527f7200000000000000000000000000000000000000000000000000000000000000602082015250565b50565b7f5472616e73666572206661696c65642e00000000000000000000000000000000600082015250565b7f4552433732313a207472616e736665722063616c6c6572206973206e6f74206f60008201527f776e6572206e6f7220617070726f766564000000000000000000000000000000602082015250565b7f455243373231456e756d657261626c653a20676c6f62616c20696e646578206f60008201527f7574206f6620626f756e64730000000000000000000000000000000000000000602082015250565b6147a281613efe565b81146147ad57600080fd5b50565b6147b981613f10565b81146147c457600080fd5b50565b6147d081613f1c565b81146147db57600080fd5b50565b6147e781613f68565b81146147f257600080fd5b5056fea2646970667358221220628b287d70a45427d295b9cb4a34042aa463325504404239423e813f39910fc464736f6c63430008040033",
  "linkReferences": {},
  "deployedLinkReferences": {}
}